:100000000C942A000C9447000C9447000C94470071
:100010000C9447000C9447000C9447000C94470044
:100020000C9447000C9447000C9447000C94470034
:100030000C9447000C9447000C9447000C94470024
:100040000C9447000C9447000C9447000C94470014
:100050000C94470011241FBECFE5D8E0DEBFCDBF12
:1000600010E0A0E6B0E0E6EDF1E002C005900D92F0
:10007000A036B107D9F720E0A0E6B0E001C01D929C
:10008000A036B207E1F70E9449000C94E9000C94F5
:100090000000CF93DF93CDB7DEB780E895E20E94F2
:1000A000590081E40E94AA0080E090E0DF91CF91A6
:1000B0000895CF93DF93CDB7DEB728970FB6F894A6
:1000C000DEBF0FBECDBF9C838B838AE290E02AE225
:1000D00030E0F90120812860FC0120838AE290E071
:1000E0002AE230E0F90120812061FC01208380E4D4
:1000F00090E026E8FC0120838B819C81829592957B
:10010000907F9827807F98279C0140E050E080E016
:1001100094E2A4EFB0E0BC01CD010E94C700DA0177
:10012000C90101979A83898389E290E02981FC01C2
:10013000208380E490E029813A81232F3327FC013A
:10014000208328960FB6F894DEBF0FBECDBFDF9197
:10015000CF910895CF93DF931F92CDB7DEB78983F8
:100160008CE290E02981FC01208300008BE290E08A
:10017000FC018081829586958770882F90E0817040
:100180009927892B99F30F90DF91CF910895A1E2E0
:100190001A2EAA1BBB1BFD010DC0AA1FBB1FEE1F01
:1001A000FF1FA217B307E407F50720F0A21BB30B4C
:1001B000E40BF50B661F771F881F991F1A9469F7C8
:1001C00060957095809590959B01AC01BD01CF0124
:0601D0000895F894FFCF32
:00000001FF
