:100000000C942A000C9434000C9434000C943400AA
:100010000C9434000C9434000C9434000C94340090
:100020000C9434000C9434000C9434000C94340080
:100030000C9434000C9434000C9434000C94340070
:100040000C9434000C9434000C9434000C94340060
:100050000C94340011241FBECFE5D8E0DEBFCDBF25
:100060000E9436000C946B010C94000061E08BE15F
:100070000E94D50061E08BE10E943F00FFCF8830F5
:10008000F8F4613069F44BB321E030E0B90102C00B
:10009000660F771F8A95E2F7CB01842B8BBB0895FF
:1000A000611182C04BB321E030E0B90102C0660F9C
:1000B000771F8A95E2F7CB01809584238BBB089547
:1000C00098EF980F983018F5613079F448B390E0C4
:1000D000089721E030E0B90102C0660F771F8A95CA
:1000E000E2F7CB01842B88BB089561115DC048B352
:1000F00090E0089721E030E0B90102C0660F771F59
:100100008A95E2F7CB018095842388BB089590EF10
:10011000980F983018F5613079F445B390E0409726
:1001200021E030E0B90102C0660F771F8A95E2F73F
:10013000CB01842B85BB0895611136C045B390E097
:10014000409721E030E0B90102C0660F771F8A9521
:10015000E2F7CB018095842385BB089598EE980F34
:10016000983010F5613079F442B390E0489721E07F
:1001700030E0B90102C0660F771F8A95E2F7CB0124
:10018000842B82BB089561110FC042B390E0489761
:1001900021E030E0B90102C0660F771F8A95E2F7CF
:1001A000CB018095842382BB08958830F8F46130B8
:1001B00069F44AB321E030E0B90102C0660F771F4D
:1001C0008A95E2F7CB01842B8ABB0895611182C026
:1001D0004AB321E030E0B90102C0660F771F8A956B
:1001E000E2F7CB01809584238ABB089598EF980F9E
:1001F000983018F5613079F447B390E0089721E022
:1002000030E0B90102C0660F771F8A95E2F7CB0193
:10021000842B87BB089561115DC047B390E00897B8
:1002200021E030E0B90102C0660F771F8A95E2F73E
:10023000CB018095842387BB089590EF980F983069
:1002400018F5613079F444B390E0409721E030E054
:10025000B90102C0660F771F8A95E2F7CB01842BA4
:1002600084BB0895611136C044B390E0409721E00B
:1002700030E0B90102C0660F771F8A95E2F7CB0123
:100280008095842384BB089598EE980F983010F5DC
:10029000613079F441B390E0489721E030E0B90152
:1002A00002C0660F771F8A95E2F7CB01842B81BBD2
:1002B000089561110FC041B390E0489721E030E00C
:1002C000B90102C0660F771F8A95E2F7CB018095CE
:0A02D000842381BB0895F894FFCF4A
:00000001FF
