S018000041746D656761333220647269766572732E7372656339
S11300000C942A000C9447000C9447000C9447006D
S11300100C9447000C9447000C9447000C94470040
S11300200C9447000C9447000C9447000C94470030
S11300300C9447000C9447000C9447000C94470020
S11300400C9447000C9447000C9447000C94470010
S11300500C94470011241FBECFE5D8E0DEBFCDBF0E
S113006010E0A0E6B0E0E8E6F3E102C005900D92EE
S1130070A036B107D9F720E0A0E6B0E001C01D9298
S1130080A036B207E1F70E9449000C94B2090C941F
S11300900000CF93DF93CDB7DEB761970FB6F89426
S11300A0DEBF0FBECDBF80E00E9481070E94E30047
S11300B081E4898381E08A8389810E940B088B8390
S11300C080E090E0AAE7B4E48C839D83AE83BF8391
S11300D020E030E04AE755E46C817D818E819F8188
S11300E00E944509DC01CB0188879987AA87BB87D1
S11300F020E030E040E85FE3688579858A859B8568
S11301000E94250888232CF481E090E09D878C8749
S11301103FC020E03FEF4FE757E4688579858A8543
S11301209B850E94400918164CF520E030E040E21F
S113013051E46C817D818E819F810E944509DC019F
S1130140CB01BC01CD010E949C08DC01CB019D8741
S11301508C870FC080E991E09F878E878E859F856D
S11301600197F1F79F878E878C859D8501979D87E1
S11301708C878C859D85892B69F714C06885798562
S11301808A859B850E949C08DC01CB019D878C8716
S11301908C859D85998B888B888999890197F1F73E
S11301A0998B888B49816A8181E00E94F9054B8192
S11301B06A8182E00E94F90589818F5F89838A813F
S11301C08F5F8A8375CFCF93DF93CDB7DEB72E973A
S11301D00FB6F894DEBF0FBECDBF41E060EF8AE3F7
S11301E090E00E94510741E06EE087E390E00E94B6
S11301F0510760E08AE00E942A0680E090E0A0E2D5
S1130200B2E489839A83AB83BC8320E030E04AE77D
S113021055E469817A818B819C810E944509DC01C6
S1130220CB018D839E83AF83B88720E030E040E824
S11302305FE36D817E818F8198850E9425088823E4
S11302402CF481E090E09A8789873FC020E03FEF5B
S11302504FE757E46D817E818F8198850E94400924
S113026018164CF520E030E040E251E469817A81CF
S11302708B819C810E944509DC01CB01BC01CD012D
S11302800E949C08DC01CB019A8789870FC080E912
S113029091E09C878B878B859C850197F1F79C87E0
S11302A08B8789859A8501979A87898789859A8515
S11302B0892B69F714C06D817E818F8198850E9496
S11302C09C08DC01CB019A87898789859A859E875A
S11302D08D878D859E850197F1F79E878D870E9476
S11302E0100286E00E94C2038FE00E94C20380E1F4
S11302F00E94C20388E20E94C2030E9488012E96D3
S11303000FB6F894DEBF0FBECDBFDF91CF91089535
S1130310CF93DF93CDB7DEB72E970FB6F894DEBF39
S11303200FBECDBF81E00E94C20380E090E0A0E058
S1130330B0E489839A83AB83BC8320E030E04AE74E
S113034055E469817A818B819C810E944509DC0195
S1130350CB018D839E83AF83B88720E030E040E8F3
S11303605FE36D817E818F8198850E9425088823B3
S11303702CF481E090E09A8789873FC020E03FEF2A
S11303804FE757E46D817E818F8198850E944009F3
S113039018164CF520E030E040E251E469817A819E
S11303A08B819C810E944509DC01CB01BC01CD01FC
S11303B00E949C08DC01CB019A8789870FC080E9E1
S11303C091E09C878B878B859C850197F1F79C87AF
S11303D08B8789859A8501979A87898789859A85E4
S11303E0892B69F714C06D817E818F8198850E9465
S11303F09C08DC01CB019A87898789859A859E8729
S11304008D878D859E850197F1F79E878D872E9622
S11304100FB6F894DEBF0FBECDBFDF91CF91089524
S1130420CF93DF93CDB7DEB72E970FB6F894DEBF28
S11304300FBECDBF82E00E94C20380E090E0A0E046
S1130440B0E489839A83AB83BC8320E030E04AE73D
S113045055E469817A818B819C810E944509DC0184
S1130460CB018D839E83AF83B88720E030E040E8E2
S11304705FE36D817E818F8198850E9425088823A2
S11304802CF481E090E09A8789873FC020E03FEF19
S11304904FE757E46D817E818F8198850E944009E2
S11304A018164CF520E030E040E251E469817A818D
S11304B08B819C810E944509DC01CB01BC01CD01EB
S11304C00E949C08DC01CB019A8789870FC080E9D0
S11304D091E09C878B878B859C850197F1F79C879E
S11304E08B8789859A8501979A87898789859A85D3
S11304F0892B69F714C06D817E818F8198850E9454
S11305009C08DC01CB019A87898789859A859E8717
S11305108D878D859E850197F1F79E878D872E9611
S11305200FB6F894DEBF0FBECDBFDF91CF91089513
S1130530CF93DF93CDB7DEB7A1970FB6F894DEBFA4
S11305400FBECDBF89A340E060EF8BE390E00E9433
S1130550210789A1807F41E0682F8BE390E00E940E
S113056021070E94E40340E060EF8BE390E00E94E7
S1130570210789A1882F90E082959295907F9827F2
S1130580807F982741E0682F8BE390E00E94210749
S11305900E94E40380E090E0A0E2B2E489839A83BD
S11305A0AB83BC832BEA3AEA4AEA50E469817A8154
S11305B08B819C810E944509DC01CB018D839E8344
S11305C0AF83B88720E030E040E850E469817A8165
S11305D08B819C810E944509DC01CB0189879A8724
S11305E0AB87BC8720E030E040E85FE36D817E812B
S11305F08F8198850E94250888231CF481E08D87CB
S1130600B2C020E03FEF4FE757E469857A858B85D8
S11306109C850E94400918160CF07BC020E030E055
S11306204AE754E469817A818B819C810E942A087B
S1130630DC01CB018E879F87A88BB98B20E030E04B
S11306404AE755E46E857F85888999890E94450922
S1130650DC01CB018A8B9B8BAC8BBD8B20E030E023
S113066040E85FE36A897B898C899D890E9425081B
S113067088232CF481E090E09F8B8E8B3FC020E098
S11306803FEF4FE757E46A897B898C899D890E94F3
S1130690400918164CF520E030E040E251E46E8544
S11306A07F85888999890E944509DC01CB01BC01B9
S11306B0CD010E949C08DC01CB019F8B8E8B0FC067
S11306C080E991E0998F888F888D998D0197F1F752
S11306D0998F888F8E899F8901979F8B8E8B8E89A6
S11306E09F89892B69F73FC06A897B898C899D8999
S11306F00E949C08DC01CB019F8B8E8B8E899F8985
S11307009B8F8A8F8A8D9B8D0197F1F79B8F8A8FA0
S11307102AC020E030E04FE753E46D817E818F8171
S113072098850E9440091816ACF469857A858B85F2
S11307309C850E949C08DC01CB019D8F8C8F8C8D45
S11307409D8D9F8F8E8F8E8D9F8D0197F1F79F8F3B
S11307508E8F0FC06D817E818F8198850E949C0849
S1130760DC01CB018D878D8588A388A18A95F1F75B
S113077088A3A1960FB6F894DEBF0FBECDBFDF915C
S1130780CF910895CF93DF931F92CDB7DEB78983BE
S113079060E089E00E942A0689810E9498020F90F5
S11307A0DF91CF910895CF93DF931F92CDB7DEB73A
S11307B0898361E089E00E942A0689810E94980267
S11307C00F90DF91CF910895CF93DF93CDB7DEB72C
S11307D0C054D1090FB6F894DEBF0FBECDBF61E09F
S11307E08BE00E942A0680E090E0A0E2B2E48983D4
S11307F09A83AB83BC832BEA3AEA4AEA50E46981E0
S11308007A818B819C810E944509DC01CB018D8317
S11308109E83AF83B88720E030E040E850E46981EC
S11308207A818B819C810E944509DC01CB018987F7
S11308309A87AB87BC8720E030E040E85FE36D81B6
S11308407E818F8198850E94250888231CF481E08D
S11308508D87B2C020E03FEF4FE757E469857A8582
S11308608B859C850E94400918160CF07BC020E003
S113087030E04AE754E469817A818B819C810E944B
S11308802A08DC01CB018E879F87A88BB98B20E0D7
S113089030E04AE755E46E857F85888999890E940E
S11308A04509DC01CB018A8B9B8BAC8BBD8B20E093
S11308B030E040E85FE36A897B898C899D890E94E6
S11308C0250888232CF481E090E09F8B8E8B3FC019
S11308D020E03FEF4FE757E46A897B898C899D8943
S11308E00E94400918164CF520E030E040E251E443
S11308F06E857F85888999890E944509DC01CB0131
S1130900BC01CD010E949C08DC01CB019F8B8E8B26
S11309100FC080E991E0998F888F888D998D019718
S1130920F1F7998F888F8E899F8901979F8B8E8B82
S11309308E899F89892B69F73FC06A897B898C8955
S11309409D890E949C08DC01CB019F8B8E8B8E8934
S11309509F899B8F8A8F8A8D9B8D0197F1F79B8F3F
S11309608A8F2AC020E030E04FE753E46D817E8116
S11309708F8198850E9440091816ACF469857A85A0
S11309808B859C850E949C08DC01CB019D8F8C8FFC
S11309908C8D9D8D9F8F8E8F8E8D9F8D0197F1F7FE
S11309A09F8F8E8F0FC06D817E818F8198850E946D
S11309B09C08DC01CB018D878D8588A388A18A954D
S11309C0F1F788A360E08BE00E942A0680E090E0C3
S11309D0A0E2B2E489A39AA3ABA3BCA32BEA3AEAAC
S11309E04AEA50E469A17AA18BA19CA10E9445091D
S11309F0DC01CB018DA39EA3AFA3B8A720E030E018
S1130A0040E850E469A17AA18BA19CA10E94450908
S1130A10DC01CB0189A79AA7ABA7BCA720E030E0F3
S1130A2040E85FE36DA17EA18FA198A50E942508EF
S1130A3088231CF481E08DA7B2C020E03FEF4FE78C
S1130A4057E469A57AA58BA59CA50E9440091816B0
S1130A500CF07BC020E030E04AE754E469A17AA1BD
S1130A608BA19CA10E942A08DC01CB018EA79FA721
S1130A70A8ABB9AB20E030E04AE755E46EA57FA50A
S1130A8088A999A90E944509DC01CB018AAB9BABDB
S1130A90ACABBDAB20E030E040E85FE36AA97BA9E2
S1130AA08CA99DA90E94250888232CF481E090E05C
S1130AB09FAB8EAB3FC020E03FEF4FE757E46AA9FE
S1130AC07BA98CA99DA90E94400918164CF520E029
S1130AD030E040E251E46EA57FA588A999A90E945F
S1130AE04509DC01CB01BC01CD010E949C08DC015D
S1130AF0CB019FAB8EAB0FC080E991E099AF88AF7B
S1130B0088AD99AD0197F1F799AF88AF8EA99FA9E8
S1130B1001979FAB8EAB8EA99FA9892B69F73FC024
S1130B206AA97BA98CA99DA90E949C08DC01CB0120
S1130B309FAB8EAB8EA99FA99BAF8AAF8AAD9BADAD
S1130B400197F1F79BAF8AAF2AC020E030E04FE76E
S1130B5053E46DA17EA18FA198A50E9440091816A7
S1130B60ACF469A57AA58BA59CA50E949C08DC0120
S1130B70CB019DAF8CAF8CAD9DAD9FAF8EAF8EADD5
S1130B809FAD0197F1F79FAF8EAF1CC06DA17EA101
S1130B908FA198A50E949C08DC01CB018DA72DA5EF
S1130BA0CE01805C9F4FFC012083CE01805C9F4F6F
S1130BB0FC018081282F2A95F1F7CE01805C9F4F9C
S1130BC0FC012083C05CDF4F0FB6F894DEBF0FBE7C
S1130BD0CDBFDF91CF910895CF93DF931F92CDB70F
S1130BE0DEB7898389810E94D3030F90DF91CF916F
S1130BF00895CF93DF9300D01F92CDB7DEB78983DA
S1130C006A834B836A8189810E940F068B810E94CB
S1130C10EC050F900F900F90DF91CF910895CF9333
S1130C20DF9300D0CDB7DEB789836A8389818130B1
S1130C3029F48A8181580E94C20307C089818230C5
S1130C4021F48A8181540E94C2030F900F90DF9196
S1130C50CF910895CF93DF9300D0CDB7DEB78983CA
S1130C606A838981883090F58A818130A9F48BE385
S1130C7090E02BE330E0F9012081622F2981422F9B
S1130C8050E021E030E002C0220F331F4A95E2F722
S1130C90262BFC012083D0C08A81882309F0CCC094
S1130CA08BE390E02BE330E0F9012081622F29816E
S1130CB0422F50E021E030E002C0220F331F4A955A
S1130CC0E2F720952623FC012083B6C08981883071
S1130CD0D0F189818031B8F58A818130C1F488E30B
S1130CE090E028E330E0F9012081622F2981222F4E
S1130CF030E0A9014850510921E030E002C0220F40
S1130D00331F4A95E2F7262BFC0120831BC08A81FE
S1130D108823C1F488E390E028E330E0F9012081DE
S1130D20622F2981222F30E0A9014850510921E086
S1130D3030E002C0220F331F4A95E2F720952623A4
S1130D40FC01208379C089818031D0F18981883187
S1130D50B8F58A818130C1F485E390E025E330E081
S1130D60F9012081622F2981222F30E0A90140510D
S1130D70510921E030E002C0220F331F4A95E2F707
S1130D80262BFC0120831BC08A818823C1F485E3C0
S1130D9090E025E330E0F9012081622F2981222FA0
S1130DA030E0A9014051510921E030E002C0220F96
S1130DB0331F4A95E2F720952623FC0120833CC08B
S1130DC089818831C8F189818032B0F58A81813086
S1130DD0C1F482E390E022E330E0F9012081622F44
S1130DE02981222F30E0A9014851510921E030E046
S1130DF002C0220F331F4A95E2F7262BFC01208301
S1130E001BC08A818823C1F482E390E022E330E0AE
S1130E10F9012081622F2981222F30E0A901485154
S1130E20510921E030E002C0220F331F4A95E2F756
S1130E3020952623FC0120830F900F90DF91CF9102
S1130E400895CF93DF9300D000D0CDB7DEB79A8357
S1130E5089836B834C838C81813061F489819A818D
S1130E60FC0190818B81292F282B89819A81FC0197
S1130E70208310C08C81882369F489819A81FC01C4
S1130E808081982F8B8180958923282F89819A814D
S1130E90FC0120830F900F900F900F90DF91CF9162
S1130EA00895CF93DF9300D000D0CDB7DEB79A83F7
S1130EB089836B834C838C81813061F489819A812D
S1130EC0FC0190818B81292F282B89819A81FC0137
S1130ED0208310C08C81882369F489819A81FC0164
S1130EE08081982F8B8180958923282F89819A81ED
S1130EF0FC0120830F900F900F900F90DF91CF9102
S1130F000895CF93DF931F92CDB7DEB7898389818C
S1130F10882F90E0009721F0019709F441C077C031
S1130F2087E390E027E330E0F90120812061FC01B0
S1130F30208387E390E027E330E0F90120812068F3
S1130F40FC01208387E390E027E330E0F90120816E
S1130F502062FC01208387E390E027E330E0F9017D
S1130F6020812F7BFC0120838DE290E02DE230E094
S1130F70F90120812160FC0120838DE290E02DE2C3
S1130F8030E0F90120812061FC0120838DE290E0B2
S1130F902DE230E0F90120812064FC01208337C078
S1130FA087E390E027E330E0F90120812F7EFC0104
S1130FB0208387E390E027E330E0F90120812F7755
S1130FC0FC01208387E390E027E330E0F9012081EE
S1130FD02F7DFC01208387E390E027E330E0F901D3
S1130FE020812064FC0120838DE290E02DE230E03A
S1130FF0F90120812F7EFC0120838DE290E02DE217
S113100030E0F90120812064FC01208300000F906E
S1131010DF91CF910895CF93DF931F92CDB7DEB7C1
S113102089838FE290E02981FC01208300008EE215
S113103090E0FC0180818823D4F78FE290E0FC01EA
S113104080810F90DF91CF9108950E94CB0808F41E
S113105081E008950E943E080C9406090E94FF084E
S113106058F00E94F80840F029F45F3F29F00C94EE
S1131070EF0851110C943A090C94F5080E941709D1
S113108068F39923B1F3552391F3951B550BBB27B3
S1131090AA2762177307840738F09F5F5F4F220FF8
S11310A0331F441FAA1FA9F335D00E2E3AF0E0E8EF
S11310B032D091505040E695001CCAF72BD0FE2F39
S11310C029D0660F771F881FBB1F261737074807CD
S11310D0AB07B0E809F0BB0B802DBF01FF27935885
S11310E05F4F3AF09E3F510578F00C94EF080C9452
S11310F03A095F3FE4F3983ED4F386957795679574
S1131100B795F7959F5FC9F7880F911D96958795B9
S113111097F90895E1E0660F771F881FBB1F6217D8
S113112073078407BA0720F0621B730B840BBA0B96
S1131130EE1F88F7E09508950E941F0988F09F57D5
S113114098F0B92F9927B751B0F0E1F0660F771FE7
S1131150881F991F1AF0BA95C9F714C0B13091F0DD
S11311600E943909B1E008950C943909672F782F4A
S11311708827B85F39F0B93FCCF3869577956795A2
S1131180B395D9F73EF490958095709561957F4F0E
S11311908F4F9F4F0895990F0008550FAA0BE0E851
S11311A0FEEF16161706E807F907C0F01216130625
S11311B0E407F50798F0621B730B840B950B39F465
S11311C00A2661F0232B242B252B21F408950A26CB
S11311D009F4A140A6958FEF811D811D089597F90B
S11311E09F6780E870E060E008959FEF80EC0895C9
S11311F000240A94161617061806090608950024F2
S11312000A9412161306140605060895092E03946B
S1131210000C11F4882352F0BB0F40F4BF2B11F4DF
S113122060FF04C06F5F7F4F8F4F9F4F089557FD3E
S11312309058440F551F59F05F3F71F04795880F40
S113124097FB991F61F09F3F79F0879508951216D7
S113125013061406551FF2CF4695F1DF08C0161683
S113126017061806991FF1CF869571056105089434
S11312700895E894BB2766277727CB0197F908954B
S11312800E94CB0808F48FEF08950E9458090C942B
S113129006090E94F80838F00E94FF0820F0952300
S11312A011F00C94EF080C94F50811240C943A09ED
S11312B00E94170970F3959FC1F3950F50E0551FD5
S11312C0629FF001729FBB27F00DB11D639FAA2797
S11312D0F00DB11DAA1F649F6627B00DA11D661FE6
S11312E0829F2227B00DA11D621F739FB00DA11D07
S11312F0621F839FA00D611D221F749F3327A00DC1
S1131300611D231F849F600D211D822F762F6A2F5C
S113131011249F5750409AF0F1F088234AF0EE0FC1
S1131320FF1FBB1F661F771F881F91505040A9F7EE
S11313309E3F510580F00C94EF080C943A095F3FEE
S1131340E4F3983ED4F3869577956795B795F7952A
S1131350E7959F5FC1F7FE2B880F911D96958795A2
S10B136097F90895F894FFCFFA
S9030000FC
