:100000000C942A000C9447000C9447000C94470071
:100010000C9447000C9447000C9447000C94470044
:100020000C9447000C9447000C9447000C94470034
:100030000C9447000C9447000C9447000C94470024
:100040000C9447000C9447000C9447000C94470014
:100050000C94470011241FBECFE5D8E0DEBFCDBF12
:1000600010E0A0E6B0E0EEE8F6E002C005900D92E8
:10007000A23AB107D9F720E0A2EAB0E001C01D9290
:10008000A43AB207E1F70E9449000C9445030C948E
:1000900000000F931F93CF93DF93CDB7DEB7C25508
:1000A000D1090FB6F894DEBF0FBECDBF80E00E942D
:1000B0000E030E94F60185E3E0E6F0E0DE01119612
:1000C00001900D928A95E1F7CE0101960E9474018C
:1000D0008DE0E5E9F0E0DE01AA5BBF4F01900D92F3
:1000E0008A95E1F7BE016A5B7F4F8091A2009091F3
:1000F000A3000E940D0110E02DC0812F8295880F72
:10010000807E00E1080FAE014A5C5F4F60E190E045
:100110000E945001AE014A5C5F4F61E081E00E94A5
:100120004F02AE014A5C5F4F60E1802F90E00E9479
:100130005001AE014A5C5F4F61E082E00E944F02D5
:100140002FEF89E698E1215080409040E1F700C010
:1001500000001F5F123088F280E090E0CE5ADF4F3F
:100160000FB6F894DEBF0FBECDBFDF91CF911F91C8
:100170000F910895CF93DF93EC0160E08CE00E9433
:100180005A028FEC97E00197F1F700C00000CE0112
:1001900096958795929582958F7089279F7089276C
:1001A000887F83600E9440038C2F0E9440038FEF62
:1001B0000E944003C82F8FE19EE40197F1F700C031
:1001C000000061E08CE00E945A028C2FDF91CF91F9
:1001D000089560E08CE00E945A0286E00E9440038D
:1001E00061E08CE00E945A028FE99FE00197F1F7ED
:1001F00000C00000089560E08CE00E945A0284E094
:100200000E94400361E08CE00E945A028FE99FE067
:100210000197F1F700C0000008950F931F93CF934B
:10022000DF93EC018B010E94E90060E08CE00E940A
:100230005A02CE0196958795929582958F7089275F
:100240009F708927887F82600E9440038C2F0E94C4
:100250004003C0E00CC00E944003CF5F8091A20029
:100260009091A30001969093A3008093A200F801BF
:10027000EC0FF11D8081882311F0C03160F361E043
:100280008CE00E945A028FE19EE40197F1F700C0D2
:1002900000000E94FB00DF91CF911F910F91089504
:1002A000CF92DF92EF92FF920F931F93CF93DF9342
:1002B0006C01D62F7A01C0E00CC08C2F90E0870132
:1002C000080F191F8C0D9D1D0E94BA00F801808334
:1002D000CF5FCD1790F3DF91CF911F910F91FF90DA
:1002E000EF90DF90CF9008950F931F93CF93DF93FC
:1002F0008C0180E090E002C08F5F9F5FF801E90F02
:10030000F11D20812111F8CF82958F70D1E0D80F97
:10031000C0E00DC0B80180E1C89F600D711D1124BF
:100320008091A2009091A3000E940D01CF5FCD1794
:1003300088F3DF91CF911F910F91089561E08BE0D9
:100340000E945A028AE68A95F1F700C060E08BE0CD
:100350000E945A028AE68A95F1F700C00895CF9369
:10036000C82F40E060EF8BE390E00E94F0026C2F1A
:10037000607F41E08BE390E00E94F0020E949E01CA
:1003800040E060EF8BE390E00E94F00280E1C89FC4
:10039000B001112441E08BE390E00E94F0020E9442
:1003A0009E018AE68A95F1F700C0CF910895CF9318
:1003B000C82F60E089E00E945A028C2F0E94AF0192
:1003C000CF91089581E00E94D7018FE99FE00197C6
:1003D000F1F700C00000089582E00E94D7018FE984
:1003E0009FE00197F1F700C00000089541E060EF41
:1003F0008AE390E00E94FF0241E06EE087E390E034
:100400000E94FF0260E08AE00E945A022FEF89EF0B
:1004100090E0215080409040E1F700C000000E9431
:10042000EC0186E00E94D7018FE00E94D70180E1B5
:100430000E94D70188E20E94D7010E94E20108953C
:10044000CF93C82F61E089E00E945A028C2F0E944E
:10045000AF01CF9108950E94200208950F931F933A
:10046000CF938C01C0E003C00E942B02CF5FF80144
:10047000EC0FF11D80818111F7CFCF911F910F916A
:100480000895813029F48FE7860F0E94D7010895DF
:10049000823021F48FEB860F0E94D7010895CF930D
:1004A000DF93EA010E944102CE010E942E02DF91F9
:1004B000CF9108958830F8F4613069F44BB321E0AE
:1004C00030E0B90102C0660F771F8A95E2F7CB01D1
:1004D000842B8BBB0895611182C04BB321E030E0C7
:1004E000B90102C0660F771F8A95E2F7CB018095AC
:1004F00084238BBB089598EF980F983018F56130DE
:1005000079F448B390E0089721E030E0B90102C0E7
:10051000660F771F8A95E2F7CB01842B88BB08957D
:1005200061115DC048B390E0089721E030E0B90167
:1005300002C0660F771F8A95E2F7CB01809584236E
:1005400088BB089590EF980F983018F5613079F4D2
:1005500045B390E0409721E030E0B90102C0660F5A
:10056000771F8A95E2F7CB01842B85BB0895611133
:1005700036C045B390E0409721E030E0B90102C0B9
:10058000660F771F8A95E2F7CB018095842385BBA0
:10059000089598EE980F983010F5613079F442B3D1
:1005A00090E0489721E030E0B90102C0660F771F64
:1005B0008A95E2F7CB01842B82BB089561110FC0AD
:1005C00042B390E0489721E030E0B90102C0660FE5
:1005D000771F8A95E2F7CB018095842382BB08952B
:1005E000413029F4FC012081622B60830895411180
:1005F00005C0FC012081609562236083089541302D
:1006000029F4FC012081622B60830895411105C00B
:10061000FC0120816095622360830895882319F08E
:100620008130D9F0089587B3806187BB87B3806834
:1006300087BB87B3806287BB87B38F7B87BB8DB156
:1006400081608DB98DB180618DB98DB180648DB9B6
:1006500061E08CE00E945A02089587B38F7E87BBC9
:1006600087B38F7787BB87B38F7D87BB87B3806462
:1006700087BB8DB18F7E8DB98DB180648DB90895A2
:0E0680008FB9779BFECF8FB10895F894FFCF0E
:10068E00374D424F5A4F205445414D20574F524BF4
:10069E00203A2053413245542026204C41374551B3
:1006AE002026204D374D41204D4137526F6F6F6FD1
:1006BE006F6F6F3300414E592042415A454E4A41A9
:0206CE004E00DC
:00000001FF
