S018000041746D656761333220647269766572732E7372656339
S11300000C942A000C9447000C9447000C9447006D
S11300100C9447000C9447000C9447000C94470040
S11300200C9447000C9447000C9447000C94750101
S11300300C9447000C949A010C9447000C944700CC
S11300400C9447000C9447000C9447000C94470010
S11300500C94470011241FBECFE5D8E0DEBFCDBF0E
S113006014E0A0E6B0E0ECE7F3E002C005900D92E6
S1130070A036B107D9F724E0A0E6B4E001C01D9290
S1130080A93CB207E1F70E9449000C94BC010C940E
S113009000000E94650080E690E00E94AD00FBCF66
S11300A061E084E00E94D00060E084E00E94D0001F
S11300B0089588BB60E085E00E94D0000E94500053
S11300C085E08A95F1F70000089541E06FEF87E33A
S11300D090E00E94660141E060EF8AE390E00E94B4
S11300E066018FE30E945900089588BB61E085E0B2
S11300F00E94D0000E94500085E08A95F1F700002C
S11301000895CF93DF93D82FC62F613450F060E069
S113011087E00E94D00061E086E00E94D000C054D5
S113012008C061E087E00E94D00060E086E00E94A1
S1130130D00087EB8D0F0E9459008FE38C0F0E9433
S11301405900DF91CF910895CF93C42F0E9481006D
S11301508C2F0E947500CF9108950F931F93CF9316
S1130160DF938C01D0E015C0EC2FF0E080E8D89F3D
S1130170E00DF11D1124E00FF11FCF5F40816C2FC2
S113018081E08D0F0E94A40001C0C0E0CC2364F77D
S1130190DF5FD830D0F3DF91CF911F910F91089595
S11301A08830F8F4613069F44BB321E030E0B901F0
S11301B002C0660F771F8A95E2F7CB01842B8BBBB5
S11301C00895611182C04BB321E030E0B90102C04F
S11301D0660F771F8A95E2F7CB01809584238BBB4A
S11301E0089598EF980F983018F5613079F448B372
S11301F090E0089721E030E0B90102C0660F771F54
S11302008A95E2F7CB01842B88BB089561115DC008
S113021048B390E0089721E030E0B90102C0660FCE
S1130220771F8A95E2F7CB018095842388BB0895D4
S113023090EF980F983018F5613079F445B390E059
S1130240409721E030E0B90102C0660F771F8A951C
S1130250E2F7CB01842B85BB0895611136C045B309
S113026090E0409721E030E0B90102C0660F771FAB
S11302708A95E2F7CB018095842385BB089598EE97
S1130280980F983010F5613079F442B390E04897B4
S113029021E030E0B90102C0660F771F8A95E2F7CA
S11302A0CB01842B82BB089561110FC042B390E04F
S11302B0489721E030E0B90102C0660F771F8A95A4
S11302C0E2F7CB018095842382BB0895413029F461
S11302D0FC012081622B60830895411105C0FC015B
S11302E0208160956223608308951F920F920FB658
S11302F00F9211248F939F93AF93BF9380916004C7
S113030090916104A0916204B09163040196A11DCF
S1130310B11D8093600490936104A0936204B09330
S11303206304BF91AF919F918F910F900FBE0F9077
S11303301F9018951F920F920FB60F9211248F934E
S11303409F93EF93FF9380916404E82FF0E09CB1B6
S1130350EB59FB4F90838F5F80936404853019F4CD
S113036010926B04F894FF91EF919F918F910F90ED
S10F03700FBE0F901F901895F894FFCF5B
S113037CFF01E1A101E1418141E101E181818101BF
S113038CC141C1018181E1018181E101C141C1010D
S113039C8181E1010101C181F90101010101010125
S11303AC010101010101010101010101818181812D
S11303BC818141412111090905050303030101014F
S11303CC010101010101010101010101010101010D
S11303DC01010101010101010103030305050909DF
S11303EC112121418101010101010101010101FFDF
S11303FCFF00C7444007C000C007C047440407C0FF
S113040C070585808704870007040700C705C540D6
S113041C47040700000080FFFFF03050901010904C
S113042C70F0F000000000000000806F7EF8E0C067
S113043C8001010382C6444C482830306050D0906F
S113044C10080808884434EC1C000000000000006C
S113045C000000000000000000000000000000008C
S113046C000000000001020408106080000000FF7E
S113047CFF0089898F0001090F0009090F00010F82
S113048C09000F0A0B000F010F010F0000000909EE
S113049C0F00000000030100FFFFE05048474748ED
S11304ACF0FFFF00000080700C0300000001070F38
S11304BC1FBFFEFCF8F0E0C080000040603000017B
S11304CC110F06091010F84780000000000000000E
S11304DC000000F0F0F0F00000000000F00010103C
S11304EC1010F0F01010101000F0F000030C70FF5E
S11304FCFF003F2020003C243C001E103E00003F27
S113050C04020027253D003F2527000020000000A1
S113051C0000000000000000FFFFC0A1928C92A11B
S113052CC0FFFF0000FC030000001F17F595959514
S113053CB5B53F1F3F73E7CF8F1F3F3E7C7CF8F070
S113054CF0E0E0C0808E010000010204081020C01D
S113055C000000FF00073FFEF0800000FF000000D9
S113056C0000FFFF0000000000FFFF00000000FF80
S113057CFF00C0E0F03838F0F0E00000F8E00000D4
S113058C00E0F80000F89C8C8C8C98F04000000083
S113059C0000000000000000FFFF018244382846E0
S11305AC83FFFF00001FE0000000000000C0E0E03B
S11305BCF1F3FFE0E0E0E0E1E1E1E1E3FEF6F4F485
S11305CCFDF98D07030303030606040C0808080849
S11305DC0F0000FF000000010F3FFEF0FF000000C1
S11305EC0000FFFF0000000000FFFF00000000FF00
S11305FCFF003F3F060606063F3F000003073C3062
S113060C3C070300003F3F0103070D383000000096
S113061C8000000000000000FFFF0303020202023E
S113062C02FFFF00000000070830C0780C0701012E
S113063C01010181C1613119090D073DE39FF307E4
S113064C1933FF870E7CF87060C080000000000036
S113065C0000000100000000000001010100000086
S113066C000003030000000000030380601807FF70
S113067CFF0000FC04044444CC00FC4CB80070D8CB
S113068C8C8CD87000F8000000F800F88888F80109
S113069CFF00008080808080FFFF808080808080CD
S11306AC80FFFF8080C0E0B8CEE3A1B090888C843A
S11306BC86878787878787878787878787878F9F9B
S11306CCB7E7FF838E9AF3FE8282BDE3828488901F
S11306DCA0C080000000000000000000000000002A
S11306EC000000008040201008040300000000FFFC
S11306FCFF8080878484848487808780818784803A
S113070C80808080808386848683808F80808088AC
S113071C8F88808F89898989898989898989898937
S113072C8989898989898989898989898989898929
S113073C8989898989898989899999A9A9C9C98939
S113074C8989898989898989898989898989898909
S113075C8989898F8E8CC8C0C0A0A0A090908888ED
S113076C848282818080808080808080808080FFF1
S9030000FC
