S018000041746D656761333220647269766572732E7372656339
S11300000C942A000C9447000C9447000C9447006D
S11300100C9447000C9447000C9447000C94470040
S11300200C9447000C9447000C9447000C94470030
S11300300C9447000C9447000C9447000C94470020
S11300400C9447000C9447000C9447000C94470010
S11300500C94470011241FBECFE5D8E0DEBFCDBF0E
S113006010E0A0E6B0E0EAE0FDE002C005900D92E9
S1130070A436B107D9F720E0A4E6B0E001C01D9290
S1130080A436B207E1F70E9449000C9483060C944D
S11300900000CF93DF9300D000D0CDB7DEB70E942D
S11300A06D01BE016D5F7F4FCE0101960E94C200BB
S11300B029813A8140E050E061E081E00E94F90149
S11300C02B813C8140E050E061E082E00E94F90134
S11300D02FEF87EA91E6215080409040E1F700C07D
S11300E00000DFCF61E08FE10E94A00260E08FE1B9
S11300F00E940A022FEF89EF90E021508040904047
S1130100E1F700C0000061E08FE10E940A02089557
S1130110CF93DF93D0E0C0E01BC08FE10E94360391
S11301208823D9F380EA8A95F1F78FE10E94360398
S1130130811102C0CC0F06C08C2F90E0880F991F4C
S1130140C82FC1608FE10E9436038111FBCFDF5FAE
S1130150D83018F38C2FDF91CF91089560E08FE1B0
S11301600E94A0028FE10E9436038111FBCF8FE130
S11301700E9436038823D9F38FE10E94360381114C
S1130180FBCF0895AF92BF92CF92DF92EF92FF928E
S11301900F931F93CF93DF938C015B010E94720036
S11301A00E94AE000E948800C82E0E948800D82EAB
S11301B00E948800E82E0E948800F82E0E94880081
S11301C06C2D70E0AD2DB0E09B012A0F3B1F4E2D2E
S11301D050E0240F351FEF2DF0E02E0F3F1F90E06D
S11301E02817390781F4762F6627A62BB72BE80149
S11301F0B983A883542F4427E42BF52BD501ED9321
S1130200FC9381E001C080E0DF91CF911F910F91B9
S1130210FF90EF90DF90CF90BF90AF90089561E092
S11302208BE00E940A0287EC90E00197F1F700C08E
S1130230000060E08BE00E940A0287EC90E00197E6
S1130240F1F700C000000895CF93C82F40E060EF9D
S11302508BE390E00E947B036C2F607F41E08BE393
S113026090E00E947B030E940F0140E060EF8BE36B
S113027090E00E947B0380E1C89FB001112441E01B
S11302808BE390E00E947B030E940F0187EC90E0D7
S11302900197F1F700C00000CF910895CF93C82FC4
S11302A060E089E00E940A028C2F0E942401CF9111
S11302B0089581E00E944E018FE39FE10197F1F7D9
S11302C000C00000089582E00E944E018FE39FE188
S11302D00197F1F700C00000089541E060EF8AE360
S11302E090E00E948A0341E06EE087E390E00E9480
S11302F08A0360E08AE00E940A022FEF83EF91E014
S1130300215080409040E1F700C000000E9463014A
S113031086E00E944E018FE00E944E0180E10E941F
S11303204E0188E20E944E010E9459010895CF9324
S1130330C82F61E089E00E940A028C2F0E942401E8
S1130340CF9108950E94970108950F931F93CF931F
S11303508C01C0E003C00E94A201CF5FF801EC0F42
S1130360F11D80818111F7CFCF911F910F910895D5
S1130370813029F48FE7860F0E944E010895823060
S113038021F48FEB860F0E944E0108950F931F9363
S1130390CF93DF93CDB7DEB72B970FB6F894DEBFBC
S11303A00FBECDBF8E010F5F1F4F2BE0F8011192DE
S11303B02A95E9F79F938F937F936F9380E690E05C
S11303C09F938F931F930F930E949903C8010E94D8
S11303D0A5010FB6F894DEBF0FBECDBF2B960FB6A6
S11303E0F894DEBF0FBECDBFDF91CF911F910F9167
S11303F00895CF92DF92EF92FF9269017A010E94F1
S1130400B801C701B6010E94C601FF90EF90DF90CA
S1130410CF9008958830F8F4613069F44BB321E04B
S113042030E0B90102C0660F771F8A95E2F7CB016D
S1130430842B8BBB0895611182C04BB321E030E063
S1130440B90102C0660F771F8A95E2F7CB01809548
S113045084238BBB089598EF980F983018F561307A
S113046079F448B390E0089721E030E0B90102C084
S1130470660F771F8A95E2F7CB01842B88BB08951A
S113048061115DC048B390E0089721E030E0B90104
S113049002C0660F771F8A95E2F7CB01809584230B
S11304A088BB089590EF980F983018F5613079F46F
S11304B045B390E0409721E030E0B90102C0660FF7
S11304C0771F8A95E2F7CB01842B85BB08956111D0
S11304D036C045B390E0409721E030E0B90102C056
S11304E0660F771F8A95E2F7CB018095842385BB3D
S11304F0089598EE980F983010F5613079F442B36E
S113050090E0489721E030E0B90102C0660F771F00
S11305108A95E2F7CB01842B82BB089561110FC049
S113052042B390E0489721E030E0B90102C0660F81
S1130530771F8A95E2F7CB018095842382BB0895C7
S11305408830F8F4613069F44AB321E030E0B9014D
S113055002C0660F771F8A95E2F7CB01842B8ABB12
S11305600895611182C04AB321E030E0B90102C0AC
S1130570660F771F8A95E2F7CB01809584238ABBA7
S1130580089598EF980F983018F5613079F447B3CF
S113059090E0089721E030E0B90102C0660F771FB0
S11305A08A95E2F7CB01842B87BB089561115DC066
S11305B047B390E0089721E030E0B90102C0660F2C
S11305C0771F8A95E2F7CB018095842387BB089532
S11305D090EF980F983018F5613079F444B390E0B7
S11305E0409721E030E0B90102C0660F771F8A9579
S11305F0E2F7CB01842B84BB0895611136C044B368
S113060090E0409721E030E0B90102C0660F771F07
S11306108A95E2F7CB018095842384BB089598EEF4
S1130620980F983010F5613079F441B390E0489711
S113063021E030E0B90102C0660F771F8A95E2F726
S1130640CB01842B81BB089561110FC041B390E0AD
S1130650489721E030E0B90102C0660F771F8A9500
S1130660E2F7CB018095842381BB0895883058F448
S113067029B330E0A90102C0559547958A95E2F760
S1130680CA018170089598EF980F983070F496B36A
S1130690282F30E028503109892F90E002C0959529
S11306A087952A95E2F78170089590EF980F983016
S11306B070F493B3282F30E020513109892F90E052
S11306C002C0959587952A95E2F78170089598EE72
S11306D0980F983070F490B3282F30E028513109E6
S11306E0892F90E002C0959587952A95E2F781704D
S11306F0089580E00895413029F4FC012081622BA3
S113070060830895411105C0FC0120816095622336
S113071060830895413029F4FC012081622B6083B9
S11307200895411105C0FC01208160956223608316
S11307300895AEE0B0E0EFE9F3E00C945A060D89B9
S11307401E8986E08C831A8309838FEF9FE79E833B
S11307508D83AE01475E5F4F6F89788DCE01019620
S11307600E94BB03EF81F885E00FF11F10822E96E3
S1130770E4E00C947606ABE0B0E0E1ECF3E00C943A
S11307804C066C017B018A01FC011782168283816D
S113079081FFCCC1CE0101963C01F6019381F701A2
S11307A093FD859193FF81917F01882309F4BAC158
S11307B0853239F493FD859193FF81917F018532D0
S11307C029F4B60190E00E94B205E7CF912C212CC8
S11307D0312CFFE1F315D8F08B3279F038F4803204
S11307E079F08332A1F4232D20611DC08D3261F094
S11307F0803369F4232D216016C0832D8260382E46
S1130800E32DE4603E2E2AC0F32DF8601DC037FCB2
S11308102DC020ED280F2A3040F08E32B9F436FC7A
S113082081C1232D2064322E19C036FE06C08AE011
S1130830989E200D1124922E11C0EAE02E9E200DC8
S11308401124222EF32DF0623F2E08C08C3621F4A1
S1130850832D8068382E02C0883641F4F70193FD59
S1130860859193FF81917F018111B3CF982F9F7D53
S11308709554933028F40C5F1F4F9FE399830DC068
S1130880833631F0833771F0833509F059C021C0C4
S1130890F801808189830E5F1F4F88248394912CF3
S11308A0530113C02801F2E04F0E511CF801A0803F
S11308B0B18036FE03C0692D70E002C06FEF7FEF98
S11308C0C5010E94A7054C018201F32DFF773F2E3D
S11308D016C0280122E0420E511CF801A080B1800C
S11308E036FE03C0692D70E002C06FEF7FEFC501D3
S11308F00E949C054C01F32DF0683F2E820133FCCD
S11309001BC0822D90E088169906B0F4B60180E2EF
S113091090E00E94B2052A94F4CFF50137FC85914A
S113092037FE81915F01B60190E00E94B20521106B
S11309302A9421E0821A91088114910471F7E8C085
S1130940843611F0893641F5F80137FE07C060811D
S11309507181828193810C5F1F4F08C06081718116
S1130960072E000C880B990B0E5F1F4FF32DFF769B
S11309703F2E97FF09C090958095709561957F4FA4
S11309808F4F9F4FF0683F2E2AE030E0A3010E9472
S1130990EE05882E861845C0853731F4232D2F7E29
S11309A0B22E2AE030E025C0932D997FB92E8F36E0
S11309B0C1F018F4883579F0B5C0803719F088375C
S11309C021F0B0C0E92FE061BE2EB4FE0DC0FB2DB6
S11309D0F460BF2E09C034FE0AC0292F2660B22E4F
S11309E006C028E030E005C020E130E002C020E18C
S11309F032E0F801B7FE07C0608171818281938182
S1130A000C5F1F4F06C06081718180E090E00E5F33
S1130A101F4FA3010E94EE05882E8618FB2DFF7739
S1130A203F2E36FE0DC0232D2E7FA22E891458F49E
S1130A3034FE0BC032FC09C0832D8E7EA82E05C067
S1130A40B82CA32C03C0B82C01C0B92CA4FE0FC031
S1130A50FE01E80DF11D8081803321F49A2D997EE9
S1130A60A92E09C0A2FE06C0B394B39404C08A2D73
S1130A70867809F0B394A3FC11C0A0FE06C0B2149A
S1130A8088F4280C922C9B180EC0B21460F4B601A2
S1130A9080E290E00E94B205B394F7CFB21418F448
S1130AA02B1802C0982C212CA4FE10C0B60180E3A0
S1130AB090E00E94B205A2FE17C0A1FC03C088E723
S1130AC090E002C088E590E0B6010CC08A2D8678DB
S1130AD059F0A1FE02C08BE201C080E2A7FC8DE2C6
S1130AE0B60190E00E94B205891438F4B60180E39F
S1130AF090E00E94B2059A94F7CF8A94F301E80D2E
S1130B00F11D8081B60190E00E94B2058110F5CFFD
S1130B10222009F442CEB60180E290E00E94B205A0
S1130B202A94F6CFF6018681978102C08FEF9FEF5A
S1130B302B96E2E10C946806FC010590615070402C
S1130B400110D8F7809590958E0F9F1F0895FC0192
S1130B506150704001900110D8F7809590958E0FE8
S1130B609F1F08950F931F93CF93DF93FB0123815E
S1130B7021FD03C08FEF9FEF2CC022FF16C04681DA
S1130B805781248135814217530744F4A081B181F0
S1130B909D012F5F3F4F318320838C9326813781C2
S1130BA02F5F3F4F3783268314C08B01EC01FB0179
S1130BB00084F185E02D0995892BE1F6D80116967C
S1130BC08D919C911797019617969C938E931697E7
S1130BD0CE01DF91CF911F910F910895FA01AA27B9
S1130BE0283051F1203181F1E8946F936E7F6E5F6C
S1130BF07F4F8F4F9F4FAF4FB1E03ED0B4E03CD01A
S1130C00670F781F891F9A1FA11D680F791F8A1FFC
S1130C10911DA11D6A0F711D811D911DA11D20D063
S1130C2009F468943F912AE0269F11243019305D1D
S1130C303193DEF6CF010895462F4770405D41930E
S1130C40B3E00FD0C9F7F6CF462F4F70405D4A335B
S1130C5018F0495D31FD4052419302D0A9F7EACF23
S1130C60B4E0A6959795879577956795BA95C9F752
S1130C7000976105710508959B01AC010A2E069445
S1130C805795479537952795BA95C9F7620F731FFE
S1130C90841F951FA01D08952F923F924F925F923B
S1130CA06F927F928F929F92AF92BF92CF92DF9278
S1130CB0EF92FF920F931F93CF93DF93CDB7DEB7DD
S1130CC0CA1BDB0B0FB6F894DEBF0FBECDBF099471
S1130CD02A88398848885F846E847D848C849B84C8
S1130CE0AA84B984C884DF80EE80FD800C811B81D6
S1130CF0AA81B981CE0FD11D0FB6F894DEBF0FBE05
S10D0D00CDBFED010895F894FFCF74
S1070D0A2575000047
S9030000FC
