S018000041746D656761333220647269766572732E7372656339
S11300000C942A000C9434000C9434000C943400A6
S11300100C9434000C9434000C9434000C9434008C
S11300200C9434000C9434000C9434000C9434007C
S11300300C9434000C9434000C9434000C9434006C
S11300400C9434000C9434000C9434000C9434005C
S11300500C94340011241FBECFE5D8E0DEBFCDBF21
S11300600E9436000C9428010C940000CF93DF9377
S1130070CDB7DEB740E061E187E390E00E94F8008D
S113008041E061E188E390E00E94C80041E064E857
S113009084E390E00E94F80040E064E885E390E0A7
S11300A00E94C80088E00E945E00882331F441E089
S11300B064E885E390E00E94C800F4CFCF93DF9317
S11300C000D0CDB7DEB78A838A81883088F489E38B
S11300D090E0FC018081882F90E02A81222F30E07B
S11300E002C0959587952A95E2F7817089834AC065
S11300F08A818830B0F08A81803198F486E390E078
S1130100FC018081882F90E02A81222F30E0285042
S1130110310902C0959587952A95E2F78170898304
S113012031C08A818031B0F08A81883198F483E3C8
S113013090E0FC018081882F90E02A81222F30E01A
S11301402051310902C0959587952A95E2F781706F
S1130150898318C08A818831A8F08A81803290F41A
S113016080E390E0FC018081882F90E02A81222F97
S113017030E02851310902C0959587952A95E2F718
S11301808170898389810F900F90DF91CF910895B9
S1130190CF93DF9300D000D0CDB7DEB79A838983A5
S11301A06B834C838C81813061F489819A81FC0159
S11301B090818B81292F282B89819A81FC012083AE
S11301C010C08C81882369F489819A81FC01808123
S11301D0982F8B8180958923282F89819A81FC010E
S11301E020830F900F900F900F90DF91CF9108957F
S11301F0CF93DF9300D000D0CDB7DEB79A83898345
S11302006B834C838C81813061F489819A81FC01F8
S113021090818B81292F282B89819A81FC0120834D
S113022010C08C81882369F489819A81FC018081C2
S1130230982F8B8180958923282F89819A81FC01AD
S113024020830F900F900F900F90DF91CF9108951E
S1070250F894FFCF4C
S9030000FC
