:100000000C942A000C9447000C9447000C94470071
:100010000C9447000C9447000C9447000C94470044
:100020000C9447000C9447000C9447000C94A001DA
:100030000C9447000C94C5010C9447000C944700A5
:100040000C9447000C9447000C9447000C94470014
:100050000C94470011241FBECFE5D8E0DEBFCDBF12
:1000600011E0A0E6B0E0E2EDF3E002C005900D92F1
:10007000A036B107D9F721E0A0E6B1E001C01D929A
:10008000A93CB207E1F70E9449000C94E7010C94E7
:1000900000000E947F0040EE50E060E280E20E949B
:1000A000C7002FEF81EE94E0215080409040E1F7AF
:1000B00000C0000040E650E060E280E20E94C7001D
:1000C0002FEF81EE94E0215080409040E1F700C096
:1000D0000000E1CF61E084E00E94FB0060E084E08A
:1000E0000E94FB00089588BB60E085E00E94FB0051
:1000F0000E946A0085E08A95F1F70000089541E0CA
:100100006FEF87E390E00E94910141E060EF8AE3A6
:1001100090E00E9491018FE30E947300089588BBD4
:1001200061E085E00E94FB000E946A0085E08A95FC
:10013000F1F700000895CF93DF93D82FC62F6134D5
:1001400050F060E087E00E94FB0061E086E00E94E2
:10015000FB00C05408C061E087E00E94FB0060E043
:1001600086E00E94FB0087EB8D0F0E9473008FE3F7
:100170008C0F0E947300DF91CF910895CF93C42F0D
:100180000E949B008C2F0E948F00CF910895DF92D8
:10019000EF92FF920F931F93CF93DF93D82EE62E0B
:1001A0008A01F12C1AC0D1E0DC0F6D2F81E00E9492
:1001B0009B00EC2FF0E0FE9CE00DF11D1124E00F00
:1001C000F11F40816D2F81E08F0D0E94BE00CD2F69
:1001D00001C0C0E0CE1538F3F3948D2D8695869539
:1001E0008695F816B0F3DF91CF911F910F91FF9094
:1001F000EF90DF9008958830F8F4613069F44BB3E4
:1002000021E030E0B90102C0660F771F8A95E2F75E
:10021000CB01842B8BBB0895611182C04BB321E0CD
:1002200030E0B90102C0660F771F8A95E2F7CB0173
:10023000809584238BBB089598EF980F983018F51C
:10024000613079F448B390E0089721E030E0B901DB
:1002500002C0660F771F8A95E2F7CB01842B88BB1B
:10026000089561115DC048B390E0089721E030E047
:10027000B90102C0660F771F8A95E2F7CB0180951E
:10028000842388BB089590EF980F983018F561305B
:1002900079F445B390E0409721E030E0B90102C025
:1002A000660F771F8A95E2F7CB01842B85BB0895F3
:1002B000611136C045B390E0409721E030E0B901CC
:1002C00002C0660F771F8A95E2F7CB0180958423E1
:1002D00085BB089598EE980F983010F5613079F449
:1002E00042B390E0489721E030E0B90102C0660FC8
:1002F000771F8A95E2F7CB01842B82BB08956111A9
:100300000FC042B390E0489721E030E0B90102C04D
:10031000660F771F8A95E2F7CB018095842382BB15
:100320000895413029F4FC012081622B60830895F7
:10033000411105C0FC01208160956223608308950E
:100340001F920F920FB60F9211248F939F93AF932A
:10035000BF938091600190916101A0916201B09181
:1003600063010196A11DB11D80936001909361010D
:10037000A0936201B0936301BF91AF919F918F9160
:100380000F900FBE0F901F9018951F920F920FB6EF
:100390000F9211248F939F93EF93FF9380916401A9
:1003A000E82FF0E09CB1EB59FE4F90838F5F809374
:1003B0006401853019F410926B01F894FF91EF916C
:1003C0009F918F910F900FBE0F901F901895F894EA
:0203D000FFCF5D
:1003D200000000000000000000007088040404888F
:1003E200700000000000000000000000000000009B
:1003F20000000000000000008080808041FF8180BA
:10040200000000000000000080400000000000002A
:100412000000000000030D116080000000FF0000DA
:1004220001020404080804030000000000000000A8
:1004320000000000000000000000000000FF0000BB
:1004420000000000000000000000000000000000AA
:10045200000000000000000000007088040404880E
:10046200700000000000000000000000000000001A
:1004720000000000000000008080808041FF418079
:1004820080000000000000000000000000000000EA
:1004920000000000000101010000000000FF000058
:1004A2000001010202000000000000000000000044
:1004B20000000000000000000000000000FF00003B
:1004C200000000000000000000000000000000002A
:00000001FF
