:100000000C942A000C9434000C9434000C943400AA
:100010000C9434000C9434000C9434000C94340090
:100020000C9434000C9434000C9434000C94340080
:100030000C9434000C9434000C9434000C94340070
:100040000C9434000C9434000C9434000C94340060
:100050000C94340011241FBECFE5D8E0DEBFCDBF25
:100060000E9436000C949A010C9400000E948900B2
:1000700081E60E94E30087EA91E60197F1F700C06C
:100080000000F6CF61E08BE00E94E6008DE08A95EB
:10009000F1F7000060E08BE00E94E6008DE08A95B9
:1000A000F1F700000895CF93C82F60E089E00E9427
:1000B000E60040E060EF8BE390E00E947C016C2F53
:1000C000607F41E08BE390E00E947C010E9442004F
:1000D00040E060EF8BE390E00E947C0180E1C89FEC
:1000E000B001112441E08BE390E00E947C010E946A
:1000F00042008DE08A95F1F70000CF91089581E0EC
:100100000E94530083EF91E00197F1F700C00000D7
:10011000089541E060EF8AE390E00E948B0141E0A6
:100120006EE087E390E00E948B0160E08AE00E942D
:10013000E6008FE097E20197F1F700C0000082E04F
:100140000E9453008FE097E20197F1F700C0000092
:1001500086E00E9453008FE00E94530080E10E94DD
:10016000530088E20E9453000E947F000895CF93BD
:10017000C82F61E089E00E94E60040E060EF8BE379
:1001800090E00E947C016C2F607F41E08BE390E067
:100190000E947C010E94420040E060EF8BE390E00F
:1001A0000E947C0180E1C89FB001112441E08BE3F3
:1001B00090E00E947C010E9442008DE08A95F1F758
:1001C0000000CF9108950E94B70008958830F8F498
:1001D000613069F44BB321E030E0B90102C0660F31
:1001E000771F8A95E2F7CB01842B8BBB08956111B1
:1001F00082C04BB321E030E0B90102C0660F771F27
:100200008A95E2F7CB01809584238BBB089598EF04
:10021000980F983018F5613079F448B390E008975A
:1002200021E030E0B90102C0660F771F8A95E2F73E
:10023000CB01842B88BB089561115DC048B390E069
:10024000089721E030E0B90102C0660F771F8A9558
:10025000E2F7CB018095842388BB089590EF980F37
:10026000983018F5613079F445B390E0409721E07B
:1002700030E0B90102C0660F771F8A95E2F7CB0123
:10028000842B85BB0895611136C045B390E040973B
:1002900021E030E0B90102C0660F771F8A95E2F7CE
:1002A000CB018095842385BB089598EE980F9830F4
:1002B00010F5613079F442B390E0489721E030E0E6
:1002C000B90102C0660F771F8A95E2F7CB01842B34
:1002D00082BB089561110FC042B390E0489721E0BE
:1002E00030E0B90102C0660F771F8A95E2F7CB01B3
:1002F0008095842382BB0895413029F4FC0120813C
:10030000622B60830895411105C0FC012081609536
:10031000622360830895413029F4FC012081622B1F
:1003200060830895411105C0FC012081609562231E
:0803300060830895F894FFCFEB
:00000001FF
