S018000041746D656761333220647269766572732E7372656339
S11300000C942A000C9447000C9447000C9447006D
S11300100C9447000C9447000C9447000C94470040
S11300200C9447000C9447000C9447000C94470030
S11300300C9447000C9447000C9447000C94470020
S11300400C9447000C9447000C9447000C94470010
S11300500C94470011241FBECFE5D8E0DEBFCDBF0E
S113006010E0A0E6B0E0E0E9FAE002C005900D92ED
S1130070AC37B107D9F720E0ACE7B0E001C01D927E
S1130080AC37B207E1F70E948E000C9446050C943D
S113009000000E9493010E94EB0080E090E00E9427
S11300A09A01EC014BE650E061E081E00E944401DA
S11300B09E0140E050E061E081E00E94820181E025
S11300C090E00E949A01EC014BE650E061E082E08E
S11300D00E9444019E01DD0F440B550B61E082E058
S11300E00E94820182E090E00E949A01EC014BE6BA
S11300F050E068E082E00E9444019E0140E050E04C
S113010068E082E00E9482012FEF81EE94E02150AA
S113011080409040E1F700C00000BFCF0E9449003A
S113012080E090E0089561E08BE00E94A80185EDF5
S11301308A95F1F7000060E08BE00E94A80185ED4C
S11301408A95F1F700000895CF93C82F40E060EF3F
S11301508BE390E00E943E026C2F607F41E08BE3D2
S113016090E00E943E020E94930040E060EF8BE327
S113017090E00E943E0280E1C89FB001112441E05A
S11301808BE390E00E943E020E94930085ED8A95E5
S1130190F1F70000CF910895CF93C82F60E089E074
S11301A00E94A8018C2F0E94A400CF91089581E0A1
S11301B00E94CC008FE39FE10197F1F700C000009B
S11301C0089582E00E94CC008FE39FE10197F1F74C
S11301D000C00000089541E060EF8AE390E00E94CF
S11301E04D0241E06EE087E390E00E944D0260E042
S11301F08AE00E94A8012FEF83EF91E02150804014
S11302009040E1F700C000000E94E10086E00E94F7
S1130210CC008FE00E94CC0080E10E94CC0088E2F8
S11302200E94CC000E94D7000895CF93C82F61E0AC
S113023089E00E94A8018C2F0E94A400CF91089508
S11302400E94150108950F931F93CF938C01C0E072
S113025003C00E942001CF5FF801EC0FF11D8081E3
S11302608111F7CFCF911F910F910895813029F417
S11302708FE7860F0E94CC000895823021F48FEB23
S1130280860F0E94CC000895CF93DF93EA010E9469
S11302903601CE010E942301DF91CF9108950F937F
S11302A01F93CF93DF93CDB7DEB72B970FB6F89498
S11302B0DEBF0FBECDBF8E010F5F1F4F2BE0F801D5
S11302C011922A95E9F79F938F937F936F9389E710
S11302D090E09F938F931F930F930E945C02C80139
S11302E00E9423010FB6F894DEBF0FBECDBF2B963C
S11302F00FB6F894DEBF0FBECDBFDF91CF911F9133
S11303000F910895CF92DF92EF92FF9269017A01E3
S11303100E943601C701B6010E944F01FF90EF9081
S1130320DF90CF90089587B1806487B986B18768DC
S113033086B9089597B1907E97B997B1892B87B9FB
S113034086B1806486B93699FECF84B195B108959B
S11303508830F8F4613069F44BB321E030E0B9013E
S113036002C0660F771F8A95E2F7CB01842B8BBB03
S11303700895611182C04BB321E030E0B90102C09D
S1130380660F771F8A95E2F7CB01809584238BBB98
S1130390089598EF980F983018F5613079F448B3C0
S11303A090E0089721E030E0B90102C0660F771FA2
S11303B08A95E2F7CB01842B88BB089561115DC057
S11303C048B390E0089721E030E0B90102C0660F1D
S11303D0771F8A95E2F7CB018095842388BB089523
S11303E090EF980F983018F5613079F445B390E0A8
S11303F0409721E030E0B90102C0660F771F8A956B
S1130400E2F7CB01842B85BB0895611136C045B357
S113041090E0409721E030E0B90102C0660F771FF9
S11304208A95E2F7CB018095842385BB089598EEE5
S1130430980F983010F5613079F442B390E0489702
S113044021E030E0B90102C0660F771F8A95E2F718
S1130450CB01842B82BB089561110FC042B390E09D
S1130460489721E030E0B90102C0660F771F8A95F2
S1130470E2F7CB018095842382BB0895413029F4AF
S1130480FC012081622B60830895411105C0FC01A9
S113049020816095622360830895413029F4FC0132
S11304A02081622B60830895411105C0FC012081E5
S11304B06095622360830895AEE0B0E0E2E6F2E086
S11304C00C941D050D891E8986E08C831A8309838B
S11304D08FEF9FE79E838D83AE01475E5F4F6F89E9
S11304E0788DCE0101960E947E02EF81F885E00F9F
S11304F0F11F10822E96E4E00C943905ABE0B0E0D5
S1130500E4E8F2E00C940F056C017B018A01FC0124
S113051017821682838181FFCCC1CE0101963C01F2
S1130520F6019381F70193FD859193FF81917F01FA
S1130530882309F4BAC1853239F493FD859193FF78
S113054081917F01853229F4B60190E00E947504FF
S1130550E7CF912C212C312CFFE1F315D8F08B320D
S113056079F038F4803279F08332A1F4232D2061BC
S11305701DC08D3261F0803369F4232D216016C0D3
S1130580832D8260382EE32DE4603E2E2AC0F32DA5
S1130590F8601DC037FC2DC020ED280F2A3040F034
S11305A08E32B9F436FC81C1232D2064322E19C059
S11305B036FE06C08AE0989E200D1124922E11C0AA
S11305C0EAE02E9E200D1124222EF32DF0623F2E00
S11305D008C08C3621F4832D8068382E02C08836FA
S11305E041F4F70193FD859193FF81917F0181117E
S11305F0B3CF982F9F7D9554933028F40C5F1F4FF1
S11306009FE399830DC0833631F0833771F08335CE
S113061009F059C021C0F801808189830E5F1F4F02
S113062088248394912C530113C02801F2E04F0EC7
S1130630511CF801A080B18036FE03C0692D70E022
S113064002C06FEF7FEFC5010E946A044C01820172
S1130650F32DFF773F2E16C0280122E0420E511CD5
S1130660F801A080B18036FE03C0692D70E002C09D
S11306706FEF7FEFC5010E945F044C01F32DF0681A
S11306803F2E820133FC1BC0822D90E08816990610
S1130690B0F4B60180E290E00E9475042A94F4CF8D
S11306A0F50137FC859137FE81915F01B60190E039
S11306B00E94750421102A9421E0821A9108811461
S11306C0910471F7E8C0843611F0893641F5F801D8
S11306D037FE07C060817181828193810C5F1F4F57
S11306E008C060817181072E000C880B990B0E5F86
S11306F01F4FF32DFF763F2E97FF09C090958095ED
S1130700709561957F4F8F4F9F4FF0683F2E2AE081
S113071030E0A3010E94B104882E861845C08537B5
S113072031F4232D2F7EB22E2AE030E025C0932D04
S1130730997FB92E8F36C1F018F4883579F0B5C099
S1130740803719F0883721F0B0C0E92FE061BE2E60
S1130750B4FE0DC0FB2DF460BF2E09C034FE0AC0E8
S1130760292F2660B22E06C028E030E005C020E123
S113077030E002C020E132E0F801B7FE07C060813A
S11307807181828193810C5F1F4F06C060817181EA
S113079080E090E00E5F1F4FA3010E94B104882EF9
S11307A08618FB2DFF773F2E36FE0DC0232D2E7F9E
S11307B0A22E891458F434FE0BC032FC09C0832DD8
S11307C08E7EA82E05C0B82CA32C03C0B82C01C063
S11307D0B92CA4FE0FC0FE01E80DF11D8081803309
S11307E021F49A2D997EA92E09C0A2FE06C0B394C5
S11307F0B39404C08A2D867809F0B394A3FC11C085
S1130800A0FE06C0B21488F4280C922C9B180EC0CB
S1130810B21460F4B60180E290E00E947504B394CF
S1130820F7CFB21418F42B1802C0982C212CA4FE74
S113083010C0B60180E390E00E947504A2FE17C0C8
S1130840A1FC03C088E790E002C088E590E0B6010F
S11308500CC08A2D867859F0A1FE02C08BE201C03B
S113086080E2A7FC8DE2B60190E00E947504891431
S113087038F4B60180E390E00E9475049A94F7CFAF
S11308808A94F301E80DF11D8081B60190E00E9485
S113089075048110F5CF222009F442CEB60180E21E
S11308A090E00E9475042A94F6CFF6018681978120
S11308B002C08FEF9FEF2B96E2E10C942B05FC0115
S11308C00590615070400110D8F7809590958E0F77
S11308D09F1F0895FC016150704001900110D8F7EA
S11308E0809590958E0F9F1F08950F931F93CF931C
S11308F0DF93FB01238121FD03C08FEF9FEF2CC009
S113090022FF16C04681578124813581421753073F
S113091044F4A081B1819D012F5F3F4F3183208337
S11309208C93268137812F5F3F4F3783268314C0F2
S11309308B01EC01FB010084F185E02D0995892BE5
S1130940E1F6D80116968D919C911797019617960A
S11309509C938E931697CE01DF91CF911F910F91A7
S11309600895FA01AA27283051F1203181F1E89441
S11309706F936E7F6E5F7F4F8F4F9F4FAF4FB1E08E
S11309803ED0B4E03CD0670F781F891F9A1FA11D89
S1130990680F791F8A1F911DA11D6A0F711D811D8A
S11309A0911DA11D20D009F468943F912AE0269F4F
S11309B011243019305D3193DEF6CF010895462FAE
S11309C04770405D4193B3E00FD0C9F7F6CF462F8F
S11309D04F70405D4A3318F0495D31FD40524193F8
S11309E002D0A9F7EACFB4E0A695979587957795B5
S11309F06795BA95C9F700976105710508959B013C
S1130A00AC010A2E06945795479537952795BA95C4
S1130A10C9F7620F731F841F951FA01D08952F929D
S1130A203F924F925F926F927F928F929F92AF927A
S1130A30BF92CF92DF92EF92FF920F931F93CF93C7
S1130A40DF93CDB7DEB7CA1BDB0B0FB6F894DEBF5E
S1130A500FBECDBF09942A88398848885F846E8484
S1130A607D848C849B84AA84B984C884DF80EE80CE
S1130A70FD800C811B81AA81B981CE0FD11D0FB6D7
S1130A80F894DEBF0FBECDBFED010895F894FFCFFB
S1130A90636F756E746572203D2000202020200055
S10F0AA031333A33373A33340025750003
S9030000FC
