:100000000C942A000C9434000C9434000C943400AA
:100010000C9434000C9434000C9434000C94340090
:100020000C9434000C9434000C9434000C94340080
:100030000C9434000C9434000C9434000C94340070
:100040000C9434000C9434000C9434000C94340060
:100050000C94340011241FBECFE5D8E0DEBFCDBF25
:100060000E9436000C94A7000C940000CF93DF93FD
:10007000CDB7DEB741E064E884E390E00E9477000A
:1000800041E064E885E390E00E944700FFCFCF9312
:10009000DF9300D000D0CDB7DEB79A8389836B831E
:1000A0004C838C81813061F489819A81FC0190813B
:1000B0008B81292F282B89819A81FC01208310C0F4
:1000C0008C81882369F489819A81FC018081982F31
:1000D0008B8180958923282F89819A81FC01208337
:1000E0000F900F900F900F90DF91CF910895CF93C5
:1000F000DF9300D000D0CDB7DEB79A8389836B83BE
:100100004C838C81813061F489819A81FC019081DA
:100110008B81292F282B89819A81FC01208310C093
:100120008C81882369F489819A81FC018081982FD0
:100130008B8180958923282F89819A81FC012083D6
:100140000F900F900F900F90DF91CF910895F8943A
:02015000FFCFDF
:00000001FF
