:100000000C942A000C9447000C9447000C94470071
:100010000C9447000C9447000C9447000C94470044
:100020000C9447000C9447000C9447000C94470034
:100030000C9447000C9430020C9447000C94470039
:100040000C9447000C9447000C9447000C94470014
:100050000C94470011241FBECFE5D8E0DEBFCDBF12
:1000600010E0A0E6B0E0E6E4F5E002C005900D92F5
:10007000A036B107D9F720E0A0E6B0E001C01D929C
:10008000A53CB207E1F70E9449000C94A1020C9430
:100090000000CF93DF93CDB7DEB76E970FB6F8941D
:1000A000DEBF0FBECDBF0E94110180E895E20E9425
:1000B00052020E947B028432E1F70E947B02873465
:1000C000C1F70E947B028035A1F70E947B02873432
:1000D00081F70E947B02873461F70E947B028134A2
:1000E00041F70E947B020E947B02888B11E00CC0CA
:1000F000E12EF12C0E947B02E0E1F0E0EC0FFD1F0D
:10010000EE0DFF1D80831F5F8C3291F7E12FF0E031
:10011000319780E190E08C0F9D1FE80FF91F80E27E
:100120008083AE01405F5F4F61E081E00E946A0121
:100130000E947B02898311E00CC0E12EF12C0E9409
:100140007B02E1E0F0E0EC0FFD1FEE0DFF1D808370
:100150001F5F8C3291F7AE014F5F5F4F61E082E02D
:100160000E946A01A6CF61E08BE00E947C0187ECCF
:1001700090E00197F1F700C0000060E08BE00E9482
:100180007C0187EC90E00197F1F700C00000089532
:10019000CF93C82F40E060EF8BE390E00E94120203
:1001A0006C2F607F41E08BE390E00E9412020E947E
:1001B000B30040E060EF8BE390E00E94120280E128
:1001C000C89FB001112441E08BE390E00E9412022D
:1001D0000E94B30087EC90E00197F1F700C00000A7
:1001E000CF910895CF93C82F60E089E00E947C01F1
:1001F0008C2F0E94C800CF91089581E00E94F200E8
:100200008FE39FE10197F1F700C00000089582E0BD
:100210000E94F2008FE39FE10197F1F700C0000018
:10022000089541E060EF8AE390E00E94210241E0FE
:100230006EE087E390E00E94210260E08AE00E9485
:100240007C012FEF83EF91E0215080409040E1F757
:1002500000C000000E94070186E00E94F2008FE0CB
:100260000E94F20080E10E94F20088E20E94F20007
:100270000E94FD000895CF93C82F61E089E00E949D
:100280007C018C2F0E94C800CF9108950E943B01F1
:1002900008950F931F93CF938C01C0E003C00E9479
:1002A0004601CF5FF801EC0FF11D80818111F7CF7E
:1002B000CF911F910F910895813029F48FE7860F18
:1002C0000E94F2000895823021F48FEB860F0E9485
:1002D000F2000895CF93DF93EA010E945C01CE0102
:1002E0000E944901DF91CF91089541E060E88FE5D8
:1002F00090E00E94120208958830F8F4613069F4A9
:100300004BB321E030E0B90102C0660F771F8A9538
:10031000E2F7CB01842B8BBB0895611182C04BB3F4
:1003200021E030E0B90102C0660F771F8A95E2F73D
:10033000CB01809584238BBB089598EF980F98305C
:1003400018F5613079F448B390E0089721E030E087
:10035000B90102C0660F771F8A95E2F7CB01842BA3
:1003600088BB089561115DC048B390E0089721E013
:1003700030E0B90102C0660F771F8A95E2F7CB0122
:100380008095842388BB089590EF980F983018F5D6
:10039000613079F445B390E0409721E030E0B90155
:1003A00002C0660F771F8A95E2F7CB01842B85BBCD
:1003B0000895611136C045B390E0409721E030E0E8
:1003C000B90102C0660F771F8A95E2F7CB018095CD
:1003D000842385BB089598EE980F983010F561300E
:1003E00079F442B390E0489721E030E0B90102C0CF
:1003F000660F771F8A95E2F7CB01842B82BB0895A5
:1004000061110FC042B390E0489721E030E0B9019C
:1004100002C0660F771F8A95E2F7CB01809584238F
:1004200082BB0895413029F4FC012081622B608356
:100430000895411105C0FC0120816095622360830D
:100440000895413029F4FC012081622B60830895D6
:10045000411105C0FC0120816095622360830895ED
:100460001F920F920FB60F9211248F939F93EF93C9
:10047000FF9380916000E82FF0E09CB1EF59FF4FAF
:1004800090838F5F80936000853019F4109267002D
:10049000F894FF91EF919F918F910F900FBE0F9065
:1004A0001F901895A0E0B0E0880F991FAA1FBB1FEE
:1004B000880F991FAA1FBB1F9C01AD01220F331F7C
:1004C000441F551F220F331F441F551F60E074E265
:1004D00084EF90E00E947F022150310930BD29B99C
:1004E0008AB188608AB98AB180618AB986E880BD9C
:1004F0000E94750108955F9BFECF8CB10895A1E223
:100500001A2EAA1BBB1BFD010DC0AA1FBB1FEE1F8D
:10051000FF1FA217B307E407F50720F0A21BB30BD8
:10052000E40BF50B661F771F881F991F1A9469F754
:1005300060957095809590959B01AC01BD01CF01B0
:060540000895F894FFCFBE
:00000001FF
