:100000000C94C5000C94E2000C94E2000C94E20005
:100010000C94E2000C94E2000C94E2000C94E200D8
:100020000C94E2000C94E2000C94E2000C94E200C8
:100030000C94E2000C949C030C94E2000C94E200FB
:100040000C94E2000C94E2000C94E2000C94E200A8
:100050000C94E2004E414E494E495459494E46CD0A
:10006000CCCC3D0AD7233C17B7D13877CC2B32956F
:1000700095E6241FB14F0A000020410000C842004D
:10008000401C4620BCBE4CCA1B0E5AAEC59D740017
:10009000407A10F35A00A0724E18090010A5D4E857
:1000A0000000E87648170000E40B54020000CA9AEA
:1000B0003B000000E1F5050000809698000000403C
:1000C000420F000000A08601000000102700000081
:1000D00000E803000000006400000000000A0000C7
:1000E0000000000100000000002C76D888DC674F7B
:1000F0000823DFC1DFAE59E1B1B796E5E3E453C6AB
:100100003AE651997696E8E6C28426EB898C9B62A2
:10011000ED407C6FFCEFBC9C9F40F2BAA56FA5F44C
:1001200090055A2AF75C936B6CF9676DC11BFCE074
:10013000E40D47FEF520E6B500D0ED902E030094C7
:100140003577050080841E080000204E0A0000005C
:10015000C80C333333330F986E12831141EF8D2166
:1001600014893BE65516CFFEE6DB18D1844B381BCD
:10017000F77C1D901DA4BBE424203284725E228192
:1001800000C9F124ECA1E53D270011241FBECFE5F5
:10019000D8E0DEBFCDBF10E0A0E6B0E0E0EAFAE1D3
:1001A00002C005900D92AC36B107D9F720E0ACE65D
:1001B000B0E001C01D92A33DB207E1F70E94E40048
:1001C0000C944E0D0C940000CF93DF93CDB7DEB7A7
:1001D000EC970FB6F894DEBF0FBECDBF84E1FE01F1
:1001E0003196DF01282F1D922A95E9F77496DF01D9
:1001F0001D928A95E9F70E947D0280E895E20E94AF
:10020000BE030E94E7038432E1F70E94E7038734CC
:10021000C1F70E94E7038035A1F70E94E703873406
:1002200081F70E94E703873461F70E94E703813476
:1002300041F70E94E7030E94E70389A711E00CC081
:10024000E12EF12C0E94E703E9E2F0E0EC0FFD1F44
:10025000EE0DFF1D80831F5F8C3291F7E12FF0E0E0
:10026000319789E290E08C0F9D1FE80FF91F80E223
:1002700080830E94E703898311E00CC0E12EF12CFA
:100280000E94E703E1E0F0E0EC0FFD1FEE0DFF1D23
:1002900080831F5F8C3291F7E12FF0E03197A1E06E
:1002A000B0E0AC0FBD1FEA0FFB1F80E280830E940D
:1002B000E703082F0E94E7030E94E7038D8B11E0FC
:1002C0000CC0E12EF12C0E94E703E5E1F0E0EC0F19
:1002D000FD1FEE0DFF1D80831F5F8C3291F7E12F14
:1002E000F0E0319785E190E08C0F9D1FE80FF91F3A
:1002F00080E280830E94E703182FCE0189960E9436
:10030000EE01AE01475D5F4F61E081E00E94D602E1
:10031000CE0101960E94A701802F0E94B202CE0159
:1003200045960E94A701AE014B5E5F4F61E082E0FF
:100330000E94D602812F0E94B2029FEFA3EDB0E38C
:100340009150A040B040E1F700C000005ACF8F921A
:100350009F92AF92BF92CF92DF92EF92FF920F9354
:100360001F938C010E944C0620E030E048EC52E4E0
:100370000E9458044B015C010E94CA046B017C017D
:10038000072E000C880B990B0E9402059B01AC0103
:10039000C501B4010E94EB032AE939E949E15FE3B1
:1003A0000E9458044B015C01B60180E090E00E947D
:1003B00000059B01AC01C501B4010E94EC0326E0DD
:1003C00047E00E942C061F910F91FF90EF90DF9065
:1003D000CF90BF90AF909F908F9008950F931F93F1
:1003E000CF93DF93C82FD92F0E94500620E137E228
:1003F00040E050E00E94FB05122F032F24E630E07E
:1004000040E050E00E94FB057F936F933F932F9352
:100410000F931F9383E690E09F938F93DF93CF9387
:100420000E948C068DB79EB70A960FB6F8949EBFB1
:100430000FBE8DBFDF91CF911F910F91089561E0A5
:100440008BE00E94E80287EC90E00197F1F700C092
:10045000000060E08BE00E94E80287EC90E00197EA
:10046000F1F700C000000895CF93C82F40E060EF7F
:100470008BE390E00E947E036C2F607F41E08BE372
:1004800090E00E947E030E941F0240E060EF8BE339
:1004900090E00E947E0380E1C89FB001112441E0FA
:1004A0008BE390E00E947E030E941F0287EC90E0A5
:1004B0000197F1F700C00000CF910895CF93C82FA6
:1004C00060E089E00E94E8028C2F0E943402CF9104
:1004D000089581E00E945E028FE39FE10197F1F7AA
:1004E00000C00000089582E00E945E028FE39FE159
:1004F0000197F1F700C00000089541E060EF8AE342
:1005000090E00E948D0341E06EE087E390E00E945E
:100510008D0360E08AE00E94E8022FEF83EF91E014
:10052000215080409040E1F700C000000E9473021B
:1005300086E00E945E028FE00E945E0280E10E94DF
:100540005E0288E20E945E020E9469020895CF93D3
:10055000C82F61E089E00E94E8028C2F0E943402DB
:10056000CF9108950E94A70208950F931F93CF93F0
:100570008C01C0E003C00E94B202CF5FF801EC0F13
:10058000F11D80818111F7CFCF911F910F910895B7
:10059000813029F48FE7860F0E945E020895823031
:1005A00021F48FEB860F0E945E020895CF93DF93B4
:1005B000EA010E94C802CE010E94B502DF91CF91EC
:1005C000089541E060E88FE590E00E947E03089581
:1005D0008830F8F4613069F44BB321E030E0B901C0
:1005E00002C0660F771F8A95E2F7CB01842B8BBB85
:1005F0000895611182C04BB321E030E0B90102C01F
:10060000660F771F8A95E2F7CB01809584238BBB19
:10061000089598EF980F983018F5613079F448B341
:1006200090E0089721E030E0B90102C0660F771F23
:100630008A95E2F7CB01842B88BB089561115DC0D8
:1006400048B390E0089721E030E0B90102C0660F9E
:10065000771F8A95E2F7CB018095842388BB0895A4
:1006600090EF980F983018F5613079F445B390E029
:10067000409721E030E0B90102C0660F771F8A95EC
:10068000E2F7CB01842B85BB0895611136C045B3D9
:1006900090E0409721E030E0B90102C0660F771F7B
:1006A0008A95E2F7CB018095842385BB089598EE67
:1006B000980F983010F5613079F442B390E0489784
:1006C00021E030E0B90102C0660F771F8A95E2F79A
:1006D000CB01842B82BB089561110FC042B390E01F
:1006E000489721E030E0B90102C0660F771F8A9574
:1006F000E2F7CB018095842382BB0895413029F431
:10070000FC012081622B60830895411105C0FC012A
:1007100020816095622360830895413029F4FC01B3
:100720002081622B60830895411105C0FC01208166
:1007300060956223608308951F920F920FB60F9207
:1007400011248F939F93EF93FF9380916C00E82F78
:10075000F0E09CB1E359FF4F90838F5F80936C0072
:10076000853019F410927300F894FF91EF919F91E6
:100770008F910F900FBE0F901F901895A0E0B0E0E2
:10078000880F991FAA1FBB1F880F991FAA1FBB1F85
:100790009C01AD01220F331F441F551F220F331F31
:1007A000441F551F60E074E284EF90E00E94FB0557
:1007B0002150310930BD29B98AB188608AB98AB11E
:1007C00080618AB986E880BD0E94E10208955F9B3E
:1007D000FECF8CB108955058BB27AA270E9403046E
:1007E0000C9454050E94460538F00E944D0520F0F7
:1007F00039F49F3F19F426F40C9443050EF4E09568
:10080000E7FB0C943D05E92F0E94650558F3BA17E4
:10081000620773078407950720F079F4A6F50C9416
:1008200087050EF4E0950B2EBA2FA02D0B01B90110
:1008300090010C01CA01A0011124FF27591B99F056
:10084000593F50F4503E68F11A16F040A22F232F62
:10085000342F4427585FF3CF469537952795A795B2
:10086000F0405395C9F77EF41F16BA0B620B730B59
:10087000840BBAF09150A1F0FF0FBB1F661F771FCA
:10088000881FC2F70EC0BA0F621F731F841F48F47F
:10089000879577956795B795F7959E3F08F0B0CF08
:1008A0009395880F08F09927EE0F979587950895EF
:1008B0000E946C040C9454050E944D0558F00E944F
:1008C000460540F029F45F3F29F00C943D05511195
:1008D0000C9488050C9443050E94650568F39923E0
:1008E000B1F3552391F3951B550BBB27AA2762172C
:1008F0007307840738F09F5F5F4F220F331F441F39
:10090000AA1FA9F335D00E2E3AF0E0E832D091506C
:100910005040E695001CCAF72BD0FE2F29D0660F59
:10092000771F881FBB1F261737074807AB07B0E89C
:1009300009F0BB0B802DBF01FF2793585F4F3AF0A2
:100940009E3F510578F00C943D050C9488055F3F5F
:10095000E4F3983ED4F3869577956795B795F79528
:100960009F5FC9F7880F911D9695879597F9089510
:10097000E1E0660F771F881FBB1F621773078407AC
:10098000BA0720F0621B730B840BBA0BEE1F88F7BB
:10099000E09508950E94D1046894B1110C948805E3
:1009A00008950E946D0588F09F5798F0B92F9927F8
:1009B000B751B0F0E1F0660F771F881F991F1AF04A
:1009C000BA95C9F714C0B13091F00E948705B1E023
:1009D00008950C948705672F782F8827B85F39F022
:1009E000B93FCCF3869577956795B395D9F73EF4E3
:1009F00090958095709561957F4F8F4F9F4F08958B
:100A0000E89409C097FB3EF49095809570956195A8
:100A10007F4F8F4F9F4F9923A9F0F92F96E9BB275E
:100A20009395F695879577956795B795F111F8CFDA
:100A3000FAF4BB0F11F460FF1BC06F5F7F4F8F4F45
:100A40009F4F16C0882311F096E911C0772321F03B
:100A50009EE8872F762F05C0662371F096E8862FD3
:100A600070E060E02AF09A95660F771F881FDAF72A
:100A7000880F9695879597F9089597F99F6780E86D
:100A800070E060E008959FEF80EC089500240A94E0
:100A90001616170618060906089500240A94121659
:100AA0001306140605060895092E0394000C11F48C
:100AB000882352F0BB0F40F4BF2B11F460FF04C039
:100AC0006F5F7F4F8F4F9F4F089557FD9058440F92
:100AD000551F59F05F3F71F04795880F97FB991F9D
:100AE00061F09F3F79F0879508951216130614065A
:100AF000551FF2CF4695F1DF08C0161617061806E7
:100B0000991FF1CF86957105610508940895E894C1
:100B1000BB2766277727CB0197F908950E94A10587
:100B20000C9454050E94460538F00E944D0520F0B3
:100B3000952311F00C943D050C94430511240C945D
:100B400088050E94650570F3959FC1F3950F50E0ED
:100B5000551F629FF001729FBB27F00DB11D639F6F
:100B6000AA27F00DB11DAA1F649F6627B00DA11D15
:100B7000661F829F2227B00DA11D621F739FB00DBB
:100B8000A11D621F839FA00D611D221F749F33272B
:100B9000A00D611D231F849F600D211D822F762FC4
:100BA0006A2F11249F5750409AF0F1F088234AF0A1
:100BB000EE0FFF1FBB1F661F771F881F915050400D
:100BC000A9F79E3F510580F00C943D050C948805D3
:100BD0005F3FE4F3983ED4F3869577956795B79594
:100BE000F795E7959F5FC1F7FE2B880F911D9695AE
:100BF000879597F90895A1E21A2EAA1BBB1BFD0148
:100C00000DC0AA1FBB1FEE1FFF1FA217B307E407EB
:100C1000F50720F0A21BB30BE40BF50B661F771F43
:100C2000881F991F1A9469F7609570958095909523
:100C30009B01AC01BD01CF010895A29FB001B39FFC
:100C4000C001A39F700D811D1124911DB29F700DD5
:100C5000811D1124911D0895EF920F931F93CF933F
:100C6000DF93E80147FD02C034E001C034E1042E07
:100C7000000C550B57FF03C0519541955109E32EC8
:100C8000022F242FAE010E948F08CE01DF91CF9159
:100C90001F910F91EF900895662777270C94E9092B
:100CA0001F93FC0199278827BC01E8941191103209
:100CB000E9F3193010F01E30C8F31B3251F01D3229
:100CC00049F4689406C00E947706610F711D811D6A
:100CD000911D119110531A30B0F33EF49095809508
:100CE000709561957F4F8F4F9F4F1F910895592F9A
:100CF000482F372F262F660F771F881F991F660FE3
:100D0000771F881F991F620F731F841F951F660F1F
:100D1000771F881F991F0895AEE0B0E0E2E9F6E082
:100D20000C94250D0D891E8986E08C831A83098316
:100D30008FEF9FE79E838D83AE01475E5F4F6F8984
:100D4000788DCE0101960E94AE06EF81F885E00F06
:100D5000F11F10822E96E4E00C94410DABE0B0E060
:100D6000E4EBF6E00C94170D6C017B018A01FC01A9
:100D700017821682838181FFCCC1CE0101963C018E
:100D8000F6019381F70193FD859193FF81917F0196
:100D9000882309F4BAC1853239F493FD859193FF14
:100DA00081917F01853229F4B60190E00E94460CC2
:100DB000E7CF912C212C312CFFE1F315D8F08B32A9
:100DC00079F038F4803279F08332A1F4232D206158
:100DD0001DC08D3261F0803369F4232D216016C06F
:100DE000832D8260382EE32DE4603E2E2AC0F32D41
:100DF000F8601DC037FC2DC020ED280F2A3040F0D0
:100E00008E32B9F436FC81C1232D2064322E19C0F4
:100E100036FE06C08AE0989E200D1124922E11C045
:100E2000EAE02E9E200D1124222EF32DF0623F2E9B
:100E300008C08C3621F4832D8068382E02C0883695
:100E400041F4F70193FD859193FF81917F01811119
:100E5000B3CF982F9F7D9554933028F40C5F1F4F8C
:100E60009FE399830DC0833631F0833771F083356A
:100E700009F059C021C0F801808189830E5F1F4F9E
:100E800088248394912C530113C02801F2E04F0E63
:100E9000511CF801A080B18036FE03C0692D70E0BE
:100EA00002C06FEF7FEFC5010E943B0C4C01820135
:100EB000F32DFF773F2E16C0280122E0420E511C71
:100EC000F801A080B18036FE03C0692D70E002C039
:100ED0006FEF7FEFC5010E94300C4C01F32DF068DD
:100EE0003F2E820133FC1BC0822D90E088169906AC
:100EF000B0F4B60180E290E00E94460C2A94F4CF50
:100F0000F50137FC859137FE81915F01B60190E0D4
:100F10000E94460C21102A9421E0821A9108811423
:100F2000910471F7E8C0843611F0893641F5F80173
:100F300037FE07C060817181828193810C5F1F4FF2
:100F400008C060817181072E000C880B990B0E5F21
:100F50001F4FF32DFF763F2E97FF09C09095809588
:100F6000709561957F4F8F4F9F4FF0683F2E2AE01D
:100F700030E0A3010E94820C882E861845C0853778
:100F800031F4232D2F7EB22E2AE030E025C0932DA0
:100F9000997FB92E8F36C1F018F4883579F0B5C035
:100FA000803719F0883721F0B0C0E92FE061BE2EFC
:100FB000B4FE0DC0FB2DF460BF2E09C034FE0AC084
:100FC000292F2660B22E06C028E030E005C020E1BF
:100FD00030E002C020E132E0F801B7FE07C06081D6
:100FE0007181828193810C5F1F4F06C06081718186
:100FF00080E090E00E5F1F4FA3010E94820C882EBC
:101000008618FB2DFF773F2E36FE0DC0232D2E7F39
:10101000A22E891458F434FE0BC032FC09C0832D73
:101020008E7EA82E05C0B82CA32C03C0B82C01C0FE
:10103000B92CA4FE0FC0FE01E80DF11D80818033A4
:1010400021F49A2D997EA92E09C0A2FE06C0B39460
:10105000B39404C08A2D867809F0B394A3FC11C020
:10106000A0FE06C0B21488F4280C922C9B180EC067
:10107000B21460F4B60180E290E00E94460CB39492
:10108000F7CFB21418F42B1802C0982C212CA4FE10
:1010900010C0B60180E390E00E94460CA2FE17C08B
:1010A000A1FC03C088E790E002C088E590E0B601AB
:1010B0000CC08A2D867859F0A1FE02C08BE201C0D7
:1010C00080E2A7FC8DE2B60190E00E94460C8914F4
:1010D00038F4B60180E390E00E94460C9A94F7CF72
:1010E0008A94F301E80DF11D8081B60190E00E9421
:1010F000460C8110F5CF222009F442CEB60180E2E1
:1011000090E00E94460C2A94F6CFF60186819781E2
:1011100002C08FEF9FEF2B96E2E10C94330DA9E014
:10112000B0E0E5E9F8E00C941D0D6A01122FB02E35
:101130002BE3201720F0FF24F394F00E02C02CE3E1
:10114000F22E0F2D27E0AE014F5F5F4F0E94370B4D
:10115000BC014981842F8970813031F0E1FC06C0E7
:10116000E0FE06C090E205C09DE203C09BE201C024
:1011700090E05E2D507143FF3CC0911102C083E0AE
:1011800001C084E0811718F4212F281B01C020E042
:1011900051110BC0F601822F30E2882319F03193F0
:1011A0008150FBCFC20ED11C20E0992329F0D6013B
:1011B0009C93F60131966F01C6010396E2FE0AC0C8
:1011C0003EE4D6013C9341E411964C93119712965C
:1011D0003C9306C03EE6F601308341E6418332830C
:1011E000FC01322F40E2332309F442C041933150D5
:1011F000FACF42FF44C0911102C083E001C084E0F5
:10120000811718F4212F281B01C020E051110BC0B9
:10121000F601822F30E2882319F031938150FBCF01
:10122000C20ED11C20E0992329F0D6019C93F6012F
:1012300031966F01C6010396E2FE0BC039E4D60178
:101240003C933EE411963C93119736E412963C93FE
:1012500007C039E6F60130833EE6318336E6328355
:10126000FC01322F40E2332319F041933150FBCF80
:10127000FC01E20FF11D10828EEF9FEFA6C021E06E
:1012800030E0911102C020E030E0161617061CF481
:10129000FB01319602C0E1E0F0E02E0F3F1FBB20C2
:1012A00021F0EB2DF0E0319602C0E0E0F0E02E0FEF
:1012B0003F1FE12FF0E02E173F071CF4121B212FD8
:1012C00001C020E08E2D887159F4F601822F30E2A2
:1012D000882319F031938150FBCFC20ED11C20E03E
:1012E000992329F0D6019C93F60131966F01511193
:1012F0000BC0F601822F90E3882319F0919381505F
:10130000FBCFC20ED11C20E00F2D060F9A81342F87
:10131000307144FF03C0913309F40150101624F4D6
:10132000093018F008E001C001E0AB0177FF02C00E
:1013300040E050E0FB01E41BF50BA1E0B0E0AC0F96
:10134000BD1FEA0FFB1F8EE2A82E4B01801A9108E9
:101350000B2D10E01195019511094F3FBFEF5B0771
:1013600021F4D601AC9211966D01641775072CF02B
:101370008416950614F4818101C080E3415051091F
:101380003196D60111967D014017510724F0D60100
:101390008C936701E2CF6417750739F4963320F414
:1013A000953319F4311101C081E3F6018083F7010F
:1013B000822F90E2882319F091938150FBCFF7019F
:1013C000E20FF11D108280E090E02996ECE00C9491
:1013D000390DA0E0B0E0EFEEF9E00C941D0DEC014A
:1013E0006B016115710519F0FB01918380837E010A
:1013F000FFEFEF1AFF0A0881802F90E00E940F0C88
:10140000892B11F0E701F3CF0D3239F47E0182E030
:10141000E80EF11C098111E008C00B3229F47E01AD
:1014200092E0E90EF11C098110E0E701219743E009
:1014300050E06CE570E0CE010E94180C892BC1F4DD
:10144000239645E050E067E570E0CE010E94180C5D
:10145000892B09F42596C114D10419F0F601D18322
:10146000C0831111F6C060E070E080E89FE7FAC029
:1014700043E050E064E570E0CE010E94180C892B37
:1014800059F4C114D10409F4E9C0F2E0EF0EF11CE3
:10149000F601F182E082E2C020E030E0A901C0E084
:1014A000D0E0F70180EDA82EA00E89E08A1530F17A
:1014B000912F9260B92E812F887012FF04C0811184
:1014C00024C0219622C081112197A5E0B0E00E949E
:1014D0000C0DDC01CB01880F991FAA1FBB1F9C01BB
:1014E000AD012A0D311D411D511D283989E93807EB
:1014F000480789E1580748F0166006C09EEFA91218
:101500000AC013FD40C01860B12E8FEFE81AF80A28
:1015100000811B2DC6CF802F8F7D8534A1F5808162
:101520008D3211F4106106C08B3221F0319661E0EA
:1015300070E004C08181329662E070E080538A30AE
:1015400018F0E61BF70B1FC060E070E060389CE00D
:1015500079075CF4DB01AA0FBB1FAA0FBB1F6A0F40
:101560007B1F660F771F680F711D3196DF01119782
:101570008C9180538A3050F314FF03C071956195AC
:101580007109C60FD71F11FF08C0C114D10429F07B
:10159000CF010197F60191838083CA01B9010E94AE
:1015A0000005212F2370233019F04B015C0106C088
:1015B0004B015C01B7FAB094B7F8B09420E030E08A
:1015C000A901C501B4010E94E00C882309F43EC0C2
:1015D000D7FF06C0D195C195D10903E710E002C03D
:1015E0000BE810E06801F8E1CF1AD10890E2E92E8B
:1015F000F12CCE15DF0574F0F80125913591459158
:101600005491C501B4010E948E054B015C01CE19B5
:10161000DF09EFCF04501109F594E7940C151D056F
:1016200041F78A2D880F8B2D881F8F3F49F020E0CE
:1016300030E0A901C501B4010E94E00C811106C08F
:1016400082E290E09093D2008093D100C501B40172
:1016500009C060E070E080E89FEF04C060E070E0E7
:1016600080EC9FE7CDB7DEB7ECE00C94390D283065
:1016700008F027E03327DA01990F311D87FD9160CB
:1016800000966105710539F432602E5F3D9330E3B9
:101690002A95E1F708959F3F30F080387105610584
:1016A00009F03C5F3C5F3D93913008F08068911DEC
:1016B000DF93CF931F930F93FF92EF92192F987F91
:1016C0009695E92F96959695E90FFF27E751FF4FDD
:1016D00099273327EE24FF24A701E70105900894FA
:1016E000079428F4360FE71EF81E491F511D660F98
:1016F000771F881F991F0694A1F70590079428F477
:10170000E70EF81E491F561FC11D770F881F991F2E
:10171000661F0694A1F70590079428F4F80E491F58
:10172000561FC71FD11D880F991F661F771F06946C
:10173000A1F70590079420F4490F561FC71FD81F23
:10174000990F661F771F881F0694A9F7849110953B
:10175000177041F0D695C79557954795F794E7943C
:101760001A95C1F7EFE8F0E068941590159135915E
:101770006591959105907FE27395E118F10A430B0D
:10178000560BC90BD009C0F7E10CF11E431F561FC1
:10179000C91FD01D7EF4703311F48A95E6CFE8940A
:1017A000015030F0080F0AF40027021708F4202F28
:1017B0002395022F7A3328F079E37D932A95E9F770
:1017C00010C07D932A9589F606949795679537956D
:1017D00017951794E118F10A430B560BC90BD00962
:1017E00098F023957E9173957A3308F070E37C939B
:1017F0002013B8F77E9170617D9330F0839571E38B
:101800007D9370E32A95E1F71124EF90FF900F91FB
:101810001F91CF91DF91992787FD909508959111A0
:101820000C94090D803219F089508550C8F708953D
:10183000FB01DC014150504088F08D9181341CF057
:101840008B350CF4805E659161341CF06B350CF4C3
:10185000605E861B611171F3990B0895881BFCCFA4
:10186000FC010590615070400110D8F7809590956B
:101870008E0F9F1F0895FC01615070400190011070
:10188000D8F7809590958E0F9F1F08950F931F9303
:10189000CF93DF93FB01238121FD03C08FEF9FEFE7
:1018A0002CC022FF16C04681578124813581421702
:1018B000530744F4A081B1819D012F5F3F4F3183D5
:1018C00020838C93268137812F5F3F4F3783268378
:1018D00014C08B01EC01FB010084F185E02D09951A
:1018E000892BE1F6D80116968D919C911797019658
:1018F00017969C938E931697CE01DF91CF911F91EF
:101900000F910895FA01AA27283051F1203181F171
:10191000E8946F936E7F6E5F7F4F8F4F9F4FAF4FF7
:10192000B1E03ED0B4E03CD0670F781F891F9A1F0A
:10193000A11D680F791F8A1F911DA11D6A0F711DBE
:10194000811D911DA11D20D009F468943F912AE0CA
:10195000269F11243019305D3193DEF6CF010895B2
:10196000462F4770405D4193B3E00FD0C9F7F6CFE3
:10197000462F4F70405D4A3318F0495D31FD4052AB
:10198000419302D0A9F7EACFB4E0A6959795879541
:1019900077956795BA95C9F7009761057105089520
:1019A0009B01AC010A2E06945795479537952795CC
:1019B000BA95C9F7620F731F841F951FA01D089564
:1019C0000E94E50C08F481E00895990F0008550F76
:1019D000AA0BE0E8FEEF16161706E807F907C0F0B5
:1019E00012161306E407F50798F0621B730B840BBD
:1019F000950B39F40A2661F0232B242B252B21F497
:101A000008950A2609F4A140A6958FEF811D811D36
:101A100008959927882708950E941D06A59F900D77
:101A2000B49F900DA49F800D911D112408952F92B5
:101A30003F924F925F926F927F928F929F92AF925E
:101A4000BF92CF92DF92EF92FF920F931F93CF93AB
:101A5000DF93CDB7DEB7CA1BDB0B0FB6F894DEBF42
:101A60000FBECDBF09942A88398848885F846E8468
:101A70007D848C849B84AA84B984C884DF80EE80B2
:101A8000FD800C811B81AA81B981CE0FD11D0FB6BB
:101A9000F894DEBF0FBECDBFED010895F894FFCFDF
:0C1AA00025750025643A25643A25640091
:00000001FF
