:100000000C942A000C9447000C9447000C94470071
:100010000C9447000C9447000C9447000C94470044
:100020000C9447000C9447000C9447000C94470034
:100030000C9447000C9447000C9447000C94470024
:100040000C9447000C9447000C9447000C94470014
:100050000C94470011241FBECFE5D8E0DEBFCDBF12
:1000600010E0A0E6B0E0E6E3FEE002C005900D92ED
:10007000A438B107D9F720E0A4E8B0E001C01D9290
:10008000A438B207E1F70E9449000C9419070C94B8
:100090000000CF93DF93CDB7DEB7C857D1090FB6B5
:1000A000F894DEBF0FBECDBF0E94220240E650E0B2
:1000B00061E081E00E947B024FE650E061E082E077
:1000C0000E947B02BE016F5F7F4FCE01CD960E94E2
:1000D0009401AE01435C5F4F67E081E00E947B02C8
:1000E000AE014F5F5F4F66E082E00E947B022FEF20
:1000F00089E698E1215080409040E1F700C000007F
:10010000D5CF61E08FE10E941C0360E08FE10E9487
:1001100086022FEF89EF90E0215080409040E1F778
:1001200000C0000061E08FE10E9486020895CF9335
:10013000DF93D0E0C0E01BC08FE10E94B2038823B0
:10014000D9F380EA8A95F1F78FE10E94B203811119
:1001500002C0CC0F06C08C2F90E0880F991FC82FCB
:10016000C1608FE10E94B2038111FBCFDF5FD83005
:1001700018F38C2FDF91CF91089560E08FE10E94FA
:100180001C038FE10E94B2038111FBCF8FE10E941B
:10019000B2038823D9F38FE10E94B2038111FBCF10
:1001A00008954F925F926F927F928F929F92AF923B
:1001B000BF92CF92DF92EF92FF920F931F93CF9354
:1001C000DF93CDB7DEB766970FB6F894DEBF0FBEEC
:1001D000CDBF3C015B014A01422E532E8EE290E0DE
:1001E0009A8389838AE0FE013396DF01982F1D925E
:1001F0009A95E9F73A96DF011D928A95E9F77723F8
:1002000034F4E894B7F88DE2FA0181934F01950137
:10021000ADECBCEC0E9415046C01D694C794D69446
:10022000C794D694C794DF92CF9200E810E01F9352
:100230000F939F928F920E942F049301ADECBCEC20
:100240000E9415047C01F694E794F694E794F694E2
:10025000E794FF92EF921F930F935F924F920E9449
:100260002F04C601880F991FCC0CDD1CCC0CDD1CA3
:10027000CC0CDD1CC80ED91EAC18BD08BF92AF92C5
:100280001F930F936E01F3E0CF0ED11CDF92CF923C
:100290000E942F04C701880F991FEE0CFF1CEE0C63
:1002A000FF1CEE0CFF1CE80EF91E6E187F087F92F3
:1002B0006F921F930F938E01035F1F4F1F930F9336
:1002C0000E942F04BE016F5F7F4F842D952D0E94E9
:1002D0002404BE016F5F7F4FC4010E942404B80153
:1002E000842D952D0E942404B601C4010E9424048B
:1002F0000FB6F894DEBF0FBECDBF66960FB6F8946A
:10030000DEBF0FBECDBFDF91CF911F910F91FF9048
:10031000EF90DF90CF90BF90AF909F908F907F90A5
:100320006F905F904F900895DF92EF92FF920F933E
:100330001F93CF93DF937C018B010E9481000E9469
:10034000BD000E949700D82F0E949700D82E0E94CF
:100350009700C82F0E949700ED2FF0E0FE2FEE27A8
:100360006C2F70E0762F6627682B9701A801CF01CC
:100370008D290E94D10081E0DF91CF911F910F91D3
:10038000FF90EF90DF90089561E08BE00E9486027D
:1003900087EC90E00197F1F700C0000060E08BE08F
:1003A0000E94860287EC90E00197F1F700C0000000
:1003B0000895CF93C82F40E060EF8BE390E00E9458
:1003C000F7036C2F607F41E08BE390E00E94F7031E
:1003D0000E94C40140E060EF8BE390E00E94F703CD
:1003E00080E1C89FB001112441E08BE390E00E94BE
:1003F000F7030E94C40187EC90E00197F1F700C079
:100400000000CF910895CF93C82F60E089E00E944B
:1004100086028C2F0E94D901CF91089581E00E941D
:1004200003028FE39FE10197F1F700C000000895F8
:1004300082E00E9403028FE39FE10197F1F700C081
:100440000000089541E060EF8AE390E00E94060416
:1004500041E06EE087E390E00E94060460E08AE0FD
:100460000E9486022FEF83EF91E021508040904060
:10047000E1F700C000000E94180286E00E9403021B
:100480008FE00E94030280E10E94030288E20E9442
:1004900003020E940E020895CF93C82F61E089E005
:1004A0000E9486028C2F0E94D901CF9108950E944C
:1004B0004C0208950F931F93CF938C01C0E003C0AB
:1004C0000E945702CF5FF801EC0FF11D808181116E
:1004D000F7CFCF911F910F910895813029F48FE7C5
:1004E000860F0E9403020895823021F48FEB860F5D
:1004F0000E9403020895CF93DF93EA010E946D02E8
:10050000CE010E945A02DF91CF9108958830F8F40D
:10051000613069F44BB321E030E0B90102C0660FED
:10052000771F8A95E2F7CB01842B8BBB089561116D
:1005300082C04BB321E030E0B90102C0660F771FE3
:100540008A95E2F7CB01809584238BBB089598EFC1
:10055000980F983018F5613079F448B390E0089717
:1005600021E030E0B90102C0660F771F8A95E2F7FB
:10057000CB01842B88BB089561115DC048B390E026
:10058000089721E030E0B90102C0660F771F8A9515
:10059000E2F7CB018095842388BB089590EF980FF4
:1005A000983018F5613079F445B390E0409721E038
:1005B00030E0B90102C0660F771F8A95E2F7CB01E0
:1005C000842B85BB0895611136C045B390E04097F8
:1005D00021E030E0B90102C0660F771F8A95E2F78B
:1005E000CB018095842385BB089598EE980F9830B1
:1005F00010F5613079F442B390E0489721E030E0A3
:10060000B90102C0660F771F8A95E2F7CB01842BF0
:1006100082BB089561110FC042B390E0489721E07A
:1006200030E0B90102C0660F771F8A95E2F7CB016F
:100630008095842382BB08958830F8F4613069F492
:100640004AB321E030E0B90102C0660F771F8A95F6
:10065000E2F7CB01842B8ABB0895611182C04AB3B3
:1006600021E030E0B90102C0660F771F8A95E2F7FA
:10067000CB01809584238ABB089598EF980F98301A
:1006800018F5613079F447B390E0089721E030E045
:10069000B90102C0660F771F8A95E2F7CB01842B60
:1006A00087BB089561115DC047B390E0089721E0D2
:1006B00030E0B90102C0660F771F8A95E2F7CB01DF
:1006C0008095842387BB089590EF980F983018F594
:1006D000613079F444B390E0409721E030E0B90113
:1006E00002C0660F771F8A95E2F7CB01842B84BB8B
:1006F0000895611136C044B390E0409721E030E0A6
:10070000B90102C0660F771F8A95E2F7CB01809589
:10071000842384BB089598EE980F983010F56130CB
:1007200079F441B390E0489721E030E0B90102C08C
:10073000660F771F8A95E2F7CB01842B81BB089562
:1007400061110FC041B390E0489721E030E0B9015A
:1007500002C0660F771F8A95E2F7CB01809584234C
:1007600081BB0895883058F429B330E0A90102C054
:10077000559547958A95E2F7CA018170089598EFDB
:10078000980F983070F496B3282F30E02850310934
:10079000892F90E002C0959587952A95E2F78170A0
:1007A000089590EF980F983070F493B3282F30E0AD
:1007B00020513109892F90E002C0959587952A959F
:1007C000E2F78170089598EE980F983070F490B326
:1007D000282F30E028513109892F90E002C09595EB
:1007E00087952A95E2F78170089580E00895413059
:1007F00029F4FC012081622B60830895411105C01A
:10080000FC0120816095622360830895413029F4C2
:10081000FC012081622B60830895411105C0FC0119
:1008200020816095622360830895A29FB001B39FE9
:10083000C001A39F700D811D1124911DB29F700DE9
:10084000811D1124911D0895FB01DC010D900020F4
:10085000E9F7119701900D920020E1F70895AEE0BD
:10086000B0E0E5E3F4E00C94F0060D891E8986E023
:100870008C831A8309838FEF9FE79E838D83AE015C
:10088000475E5F4F6F89788DCE0101960E945104BB
:10089000EF81F885E00FF11F10822E96E4E00C94B2
:1008A0000C07ABE0B0E0E7E5F4E00C94E2066C0185
:1008B0007B018A01FC0117821682838181FFCCC1F2
:1008C000CE0101963C01F6019381F70193FD8591DC
:1008D00093FF81917F01882309F4BAC1853239F4ED
:1008E00093FD859193FF81917F01853229F4B601B3
:1008F00090E00E944806E7CF912C212C312CFFE19B
:10090000F315D8F08B3279F038F4803279F08332F5
:10091000A1F4232D20611DC08D3261F0803369F474
:10092000232D216016C0832D8260382EE32DE460D4
:100930003E2E2AC0F32DF8601DC037FC2DC020EDDF
:10094000280F2A3040F08E32B9F436FC81C1232DB5
:100950002064322E19C036FE06C08AE0989E200D13
:100960001124922E11C0EAE02E9E200D1124222E79
:10097000F32DF0623F2E08C08C3621F4832D806861
:10098000382E02C0883641F4F70193FD859193FF1C
:1009900081917F018111B3CF982F9F7D9554933022
:1009A00028F40C5F1F4F9FE399830DC0833631F00D
:1009B000833771F0833509F059C021C0F801808177
:1009C00089830E5F1F4F88248394912C530113C099
:1009D0002801F2E04F0E511CF801A080B18036FED4
:1009E00003C0692D70E002C06FEF7FEFC5010E9468
:1009F0003D064C018201F32DFF773F2E16C02801E2
:100A000022E0420E511CF801A080B18036FE03C0E6
:100A1000692D70E002C06FEF7FEFC5010E943206C2
:100A20004C01F32DF0683F2E820133FC1BC0822D58
:100A300090E088169906B0F4B60180E290E00E943A
:100A400048062A94F4CFF50137FC859137FE819151
:100A50005F01B60190E00E94480621102A9421E02F
:100A6000821A91088114910471F7E8C0843611F05C
:100A7000893641F5F80137FE07C0608171818281B6
:100A800093810C5F1F4F08C060817181072E000C9D
:100A9000880B990B0E5F1F4FF32DFF763F2E97FFAC
:100AA00009C090958095709561957F4F8F4F9F4FAE
:100AB000F0683F2E2AE030E0A3010E948406882ED1
:100AC000861845C0853731F4232D2F7EB22E2AE0BB
:100AD00030E025C0932D997FB92E8F36C1F018F4E0
:100AE000883579F0B5C0803719F0883721F0B0C06B
:100AF000E92FE061BE2EB4FE0DC0FB2DF460BF2EC9
:100B000009C034FE0AC0292F2660B22E06C028E094
:100B100030E005C020E130E002C020E132E0F80121
:100B2000B7FE07C060817181828193810C5F1F4F86
:100B300006C06081718180E090E00E5F1F4FA301CD
:100B40000E948406882E8618FB2DFF773F2E36FEE6
:100B50000DC0232D2E7FA22E891458F434FE0BC015
:100B600032FC09C0832D8E7EA82E05C0B82CA32C84
:100B700003C0B82C01C0B92CA4FE0FC0FE01E80DC3
:100B8000F11D8081803321F49A2D997EA92E09C010
:100B9000A2FE06C0B394B39404C08A2D867809F0EF
:100BA000B394A3FC11C0A0FE06C0B21488F4280CB4
:100BB000922C9B180EC0B21460F4B60180E290E053
:100BC0000E944806B394F7CFB21418F42B1802C051
:100BD000982C212CA4FE10C0B60180E390E00E9466
:100BE0004806A2FE17C0A1FC03C088E790E002C03F
:100BF00088E590E0B6010CC08A2D867859F0A1FEF8
:100C000002C08BE201C080E2A7FC8DE2B60190E059
:100C10000E944806891438F4B60180E390E00E94EF
:100C200048069A94F7CF8A94F301E80DF11D80816C
:100C3000B60190E00E9448068110F5CF222009F409
:100C400042CEB60180E290E00E9448062A94F6CF98
:100C5000F6018681978102C08FEF9FEF2B96E2E12C
:100C60000C94FE06FC010590615070400110D8F70D
:100C7000809590958E0F9F1F0895FC0161507040E4
:100C800001900110D8F7809590958E0F9F1F0895C1
:100C90000F931F93CF93DF93FB01238121FD03C0AB
:100CA0008FEF9FEF2CC022FF16C046815781248111
:100CB00035814217530744F4A081B1819D012F5F14
:100CC0003F4F318320838C93268137812F5F3F4FA5
:100CD0003783268314C08B01EC01FB010084F1856E
:100CE000E02D0995892BE1F6D80116968D919C91FE
:100CF0001797019617969C938E931697CE01DF91C6
:100D0000CF911F910F910895FA01AA27283051F130
:100D1000203181F1E8946F936E7F6E5F7F4F8F4F2C
:100D20009F4FAF4FB1E03ED0B4E03CD0670F781F8B
:100D3000891F9A1FA11D680F791F8A1F911DA11D70
:100D40006A0F711D811D911DA11D20D009F46894A9
:100D50003F912AE0269F11243019305D3193DEF651
:100D6000CF010895462F4770405D4193B3E00FD007
:100D7000C9F7F6CF462F4F70405D4A3318F0495DF2
:100D800031FD4052419302D0A9F7EACFB4E0A695D5
:100D90009795879577956795BA95C9F700976105F7
:100DA000710508959B01AC010A2E0694579547954D
:100DB00037952795BA95C9F7620F731F841F951F42
:100DC000A01D08952F923F924F925F926F927F9253
:100DD0008F929F92AF92BF92CF92DF92EF92FF924B
:100DE0000F931F93CF93DF93CDB7DEB7CA1BDB0BF7
:100DF0000FB6F894DEBF0FBECDBF09942A8839889C
:100E000048885F846E847D848C849B84AA84B984A2
:100E1000C884DF80EE80FD800C811B81AA81B981AE
:100E2000CE0FD11D0FB6F894DEBF0FBECDBFED01C2
:060E30000895F894FFCFC5
:100E360048756D69643D20202020202552480074A5
:100E4600656D703D2020202020204465672E6300BC
:040E560025750000FE
:00000001FF
